:020000040000FA
:10000000785400108D020000950200009702000055
:10001000990200009B0200009D0200000000000009
:100020000000000000000000000000009F0200002F
:10003000A102000000000000A30200006D4F0000BC
:10004000A7020000E7060000F9060000090700000B
:1000500019070000EF8E0000A7020000A7020000B1
:10006000C5910000A7020000A7020000A70200003F
:10007000A7020000A7020000A7020000A7020000DC
:10008000A7020000A7020000A7020000A7020000CC
:10009000A7020000A7020000A7020000A7020000BC
:1000A00073A00000A7020000A7020000A702000042
:1000B000A7020000A7020000A7020000A70200009C
:1000C000A7020000A7020000A7020000A70200008C
:1000D000A7020000A7020000A7020000A70200007C
:1000E000A702000000F002F800F090F80AA090E8E3
:1000F000000C82448344AAF10107DA4501D100F0E3
:1001000085F8AFF2090EBAE80F0013F0010F18BF1F
:10011000FB1A43F001031847606D0700806D07006C
:10012000103A24BF78C878C1FAD8520724BF30C823
:1001300030C144BF04680C607047000000230024F5
:1001400000250026103A28BF78C1FBD8520728BFE7
:1001500030C148BF0B6070476E290AF05586702980
:100160000BF0A58166290EF0F28465290EF0EF846C
:1001700067290EF0EC846129AFF3008003681B0A45
:1001800028BF41F0800169290AF0028664290AF03B
:10019000FF8575290AF0FC856F290BF032817829DB
:1001A0000BF07181E9290BF0CD80E4290BF0CA80B6
:1001B000F5290BF0C780EF290BF02F81F8290BF000
:1001C00070810368DB0928BF41F0800163290BF0CF
:1001D000C58273290BF0CA82E3290BF0D582F3297B
:1001E0000BF0DA82002070471FB50BF0BDF9040058
:1001F000002000210DF038FB401C60600020002131
:100200000DF01CFBE0601FBD10B510BD0BF07AFBBC
:100210001146FFF7E9FF00F087F90BF0F3FD03B497
:10022000FFF7F2FF03BC0BF037FE00000A4A02EBB7
:1002300001111022A1F500710AF0C6BC074A01EBBA
:10024000410102EB8101A1F5C0710A6802604A68B0
:10025000426089688160704710280100002E01000B
:1002600076220848002101E000F8011B521E92B2DC
:10027000FAD204480278052A00D3017002480170BE
:1002800070470000240100108600001009488047D4
:1002900009480047FEE7FEE7FEE7FEE7FEE7FEE768
:1002A000FEE7FEE7FEE7FEE704480549054A064B80
:1002B00070470000757E0000E500000078480010DF
:1002C0007854001078500010785000101CB50C467F
:1002D000064B7B446946009020460AF0BCFF04466A
:1002E000002069460AF0CAFF20461CBDA7AF0000E7
:1002F00070477047704770470DF0FEBAFFFFFFFF71
:10030000834840F20121C0F88011C0F88411C0F880
:100310008811C0F88C11C0F89011C0F89411C0F881
:100320009811C0F89C11C0F8A011C0F8A411C0F831
:10033000A811C0F8AC11C0F8B011C0F8B411C0F8E1
:10034000B811C0F8BC11C0F8C011C0F8C411C0F891
:10035000C811C0F8CC11C0F8D011C0F8D411C0F841
:10036000D811C0F8DC11C0F8E011C0F8E411C0F8F1
:10037000E811C0F8EC11C0F8F011C0F8F411C0F8A1
:10038000F811C0F8FC11C0F80012C0F80412C0F84F
:100390000812C0F80C12C0F81012C0F81412C0F8FD
:1003A0001812C0F81C12C0F82012C0F82412C0F8AD
:1003B0002812C0F82C12C0F83012C0F83412C0F85D
:1003C0003812C0F83C12C0F84012C0F84412C0F80D
:1003D0004812C0F84C12C0F85012C0F85412C0F8BD
:1003E0005812C0F85C12C0F86412C0F84011C0F88E
:1003F0004411C0F84811C0F85011C0F86011C0F89D
:100400007011C0F87411C0F87811C0F87C117047F1
:100410002DE9F041DFF8FC80434653F8C40F40F467
:100420000060186041F61F70C3F818013A4C0122B1
:1004300022600026A660FFF763FF3848384900684D
:10044000B0FBF1F5D86B00B16D084FF47A77B7FBCC
:10045000F5F101F11300B0FBF1F323630F236363A4
:10046000A663E263B0FBF1F0801C2064626401F1DA
:100470003E00B0FBF1FCC4F848C0B0FBF1FCC4F88E
:100480004CC02365B0FBF1F06065A265A26240F24A
:100490000330C4F804014FF48D40C4F80001C4F8DF
:1004A00000016421002000F0CBF840F283102062AC
:1004B000C821002000F0C4F840F20310206202209E
:1004C0006062401C8028FCD340F2E7104543B5FB36
:1004D000F7F080B2606283202062124800682662D2
:1004E000D4F8000140F40020C4F8000101210020EC
:1004F00000F0A6F80121002000F0A2F8D8F8DC11E5
:1005000021F01F0141F01101C8F8DC11BDE8F081B4
:1005100000C0024000C00F4000C009209C00001035
:1005200040420F00004006A0002007F088FE394A34
:10053000002111604FF47A72B0FBF2F0401EB0F16E
:10054000807F0CD220F07F424FF0E020521E4261AB
:10055000314BF82283F8142D81610721016104F0E9
:1005600088FE2E4C022020602068801E1228FBD2BC
:10057000DFE800F00A0909100D0909091309160935
:100580000909191C1F22EFE704F029FFECE705F029
:100590008FFAE9E705F0CCFCE6E707F091F8E3E72E
:1005A00006F0A1FFE0E706F01FFFDDE704F083FFA0
:1005B000DAE705F035F9D7E705F07DF9D4E72DE95D
:1005C000F047012116A009F015FA061E20DD174F8D
:1005D0004FF47A684246396809F0AEFA022114A055
:1005E00009F008FA051E13DDC146DFF8508000242B
:1005F0004A462846396809F0B2FB04444445F7D31B
:10060000284609F032FC3046BDE8F04709F02DBC21
:10061000BDE8F087800000100FE000E094000010BB
:100620004D53524541442E545854000018010010B7
:100630004A4B353532302E5458540000809698007D
:10064000F0B57F4A0023FF25042612684FF0020C04
:100650004FF47A740127A8B1012824D0022832D09F
:1006600003280ED17748C0F804C0C360B2FBF4F28F
:10067000521E4A4382610560466147604168C9076E
:10068000FCD1F0BD4FF04020C0F804C0C360B2FB05
:10069000F4F2521E4A438261056046614760416838
:1006A000C907FCD1F0BD6848C0F804C0C360B2FB04
:1006B000F4F2521E4A438261056046614760416818
:1006C000C907FCD1F0BD6148C0F804C0C360B2FBEB
:1006D000F4F2521E4A4382610560466147604168F8
:1006E000C907FCD1F0BD4FF04021012008605848F7
:1006F0000168491C01607047534901200860544853
:100700004168491C416070475049012008605048C9
:100710008168491C816070474A49012008604C4843
:10072000C168491CC1607047012138B1012808D057
:10073000022809D0032806D1424803E04FF04020A8
:1007400000E04148416070474048FBE7002140B16C
:10075000012809D03D4A022801D0032800D1516068
:1007600070474FF0402000E037484160704738B193
:1007700001280CD002280CD0032807D1314809E009
:100780004FF04021486840F00200486070472E4812
:1007900000E02E48416841F002014160704770B5A9
:1007A00000242B4D2B4A032338B1012818D00228EE
:1007B00021D003282AD0002070BD2C6052F8C40F2D
:1007C00040F0020010604FF04020426842F0020208
:1007D00042604EF65F22C2608161436101201FE0EA
:1007E0006C6052F8C40F40F004001060164881613C
:1007F0004361022014E0AC6052F8C40F40F4800062
:100800001060124881614361032009E0EC6052F8F6
:10081000C40F40F4000010600A4881614361042065
:1008200000F002F8012070BD00F01F02012191408C
:100830004009800000F1E020C0F80011704700007E
:10084000A000001000400940008000400000094066
:100850000000001000C00F40FC4908B5002888695E
:1008600042F210720CD040F0010088610092886959
:1008700040F4006088610098401E0090F7D108BDE8
:1008800020F40060886110460092401E0090FCD168
:10089000886920F00100886108BDED4A002108C880
:1008A000491C08C28029FAD37047EA4B30B44FF094
:1008B000270208001A615A61C3F87022C3F8742233
:1008C000C3F81821C3F81C21C3F82021C3F8242140
:1008D0009A61DA61C3F8D020C3F8D420C3F8D820D5
:1008E000C3F8DC20C3F8E020C3F8E4201A625A629F
:1008F000C3F83021C3F83421C3F8E820C3F8EC2052
:10090000C3F8F020C3F8F420C3F80821C3F8142179
:10091000C3F80C21C3F81021C3F80021CE4A116C92
:1009200041F002011164916D41F00A019165CB49DA
:1009300051F8C42F42F001020A60C94A136823F03B
:1009400001031360C14A4FF000039361946924F0DE
:100950000E049461946944F00A049461946944F02B
:1009600020049461946924F080049461946924F4CF
:1009700080749461946924F400749461946924F4FB
:1009800080649461946924F400649461B54CB64D1C
:100990002468B4FBF5F4C1F8F440916841F080613B
:1009A0009160916821F020019160916841F40061AB
:1009B0009160916841F480519160916821F40051F7
:1009C0009160916821F4804191609168A74C01EA9F
:1009D000040191609168A64C41EA040191601360A2
:1009E000116841F01C511160116841F480211160BF
:1009F000116841F480711160116841F07401116057
:100A00005360516841F000615160516841F4002128
:100A10005160516841F480615160516840F20F1398
:100A200041EA0301516093491161516101D030BC29
:100A300033E730BC70478F4A00214FF4FF3301C2C7
:100A4000491C9942FBD37047F0B5C1EB0114E40196
:100A5000884D04EB80042C44121A0025C2F5F07670
:100A6000591A059F08E0002001E080C4401C824222
:100A7000FBD804EB86046D1CA942F4D8F0BD7D4B75
:100A8000B0F5F07F08D2B1F5887F05D2C1EB011136
:100A900000EB411043F8202070472DE9F043174642
:100AA000DDF81C901E460D460446B84201D9274683
:100AB00094B2B54201D90E469DB2381B711B00B2EB
:100AC0000FFA81FC68B1BCF1000F15D0604531DD33
:100AD000C0EB4C010EB24FEA4C01404201EB400822
:100AE00025E04A4629462046FFF7C9FF6D1CADB2F6
:100AF000AE42F6D2BDE8F0834A4629462046FFF7CB
:100B0000BEFF641CA4B2A742F6D2F3E74A462946C8
:100B10002046FFF7B4FF641CA4B2002E04DD6D1C58
:100B2000ADB208EB060001E006EB4C0006B2BC4299
:100B3000ECD11BE0CCEB40010FB24FEA4C0140423C
:100B400001EB400810E04A4629462046FFF797FF90
:100B50006D1CADB2002F04DD641CA4B208EB0700CD
:100B600001E007EB4C0007B2B542ECD14A462946FA
:100B70002046BDE8F04382E72DE9FF5F8846064640
:100B80009A4611466846DDF838B0FFF74FFB00255E
:100B90004FEA0D09002419F805C008EB050700BF4E
:100BA000C4F107002CFA00F0C00706EB0400B9B24C
:100BB00080B201D0524600E05A46FFF760FF641C45
:100BC000082CEDD36D1C102DE4D3BDE8FF9F2DE95B
:100BD000FE4F0F4681469A4611466846FFF72EFBA8
:100BE0000025E846002418F8056007EB050C00BF57
:100BF000C4F1070026FA00F0C00707D009EB040093
:100C00001FFA8CF180B25246FFF739FF641C082CA2
:100C1000EED36D1C0C2DE5D3BDE8FE8F2DE9F84316
:100C20009946DDF8207016460D4604464FF4EC78E0
:100C300016F8012B4B46294620460097FFF79CFFEC
:100C4000444519D20834A4B21EE0000000800820F8
:100C50000082082000C002400080092000C00F4030
:100C6000008C0820A00000109C997400FFFF00FC7D
:100C70000000DF01000001A0FF2D4FF0000402D8AA
:100C80001035ADB200E0002530780028D0D1BDE8A5
:100C9000F8832DE9FF4F81B090460C460546064685
:100CA0000F464FF0000C00BFA6F1140080B2424680
:100CB0002146FFF7E4FEA7F11400761C81B2B6B21C
:100CC00042462846FFF7DBFE7F1C0CF1010C1FFAA1
:100CD0008CFCBFB2BCF1280FE6D3A4F114002E4661
:100CE00027464FF0000C04F1140AA5F1140B05F18E
:100CF000140900900098A6F1140881B21FFA88F038
:100D0000049AFFF7BCFE1FFA8AF11FFA88F0049AD2
:100D1000FFF7B5FE761CA7F11408B6B21FFA88F1EA
:100D20001FFA8BF0049AFFF7AAFE1FFA88F11FFA48
:100D300089F0049AFFF7A3FE7F1C0CF1010C1FFA47
:100D40008CFCBFB2BCF10A0FD4D30026A4F1140A64
:100D500004F11409A5F1140805F1140705F10A0CB2
:100D60001FFA8AF11FFA8CF0049AFFF788FE1FFA27
:100D700089F11FFA8CF0049AFFF781FE6D1C04F1D3
:100D80000A0CADB21FFA8CF11FFA88F0049AFFF733
:100D900076FE1FFA8CF1B8B2049AFFF770FE641C5D
:100DA000761CB6B2A4B20A2ED8D305B0BDE8F08F37
:100DB00030B50246FE491378002000BF00EB8014D6
:100DC0000D5D9D4204D10C4455786478A54204D051
:100DD000401C80B27728F1D3002030BD30B50246E8
:100DE000F4491378002000BF00EB001411F81450F0
:100DF0009D4205D101EB440455786478A54204D0A6
:100E0000401C80B2B428EFD3002030BD2DE9F04F54
:100E1000044684468B46002502FB03F0C11790462A
:100E2000DFF894A300EB517921E009980026475D93
:100E3000380602D5DAF8002001E0DAF80420594635
:100E40002046FFF71CFE641C7806A4B2070EA4EB34
:100E50000C01414505D10BF1010064461FFA80FBEE
:100E600003E0761CF6B2082EE2D36D1CADB2B5EBF2
:100E7000E90FDADB9AE72DE9F04789460446054693
:100E8000CC4902EB0210DFF830A301EB40084FF031
:100E9000000653BB08EB06005FF0000790F802C0A5
:100EA0005FEA0C6002D5DAF8002001E0DAF80420ED
:100EB00049462046FFF7E3FD4FEA4C60641C4FEAC9
:100EC000106CA4B2601B102809D07F1CFFB2082F41
:100ED000E6D3761CF6B2202EDCD3BDE8F08709F10C
:100EE00001002C461FFA80F9F3E708EB0600002703
:100EF00090F802C05FEA0C6002D5DAF8042001E045
:100F0000DAF8002049462046FFF7B9FD4FEA4C6069
:100F1000641C4FEA106CA4B2601B102808D07F1C20
:100F2000FFB2082FE6D3761CF6B2202EDDD3D4E72D
:100F300009F101002C461FFA80F9F4E72DE9F0478A
:100F40008946044605469A4902EB8210DFF868A2FA
:100F500000EB01084FF0000653BB00BF08EB060092
:100F60005FF0000790F802C05FEA0C6002D5DAF883
:100F7000002001E0DAF8042049462046FFF77FFD13
:100F80004FEA4C60641C4FEA106CA4B2601B182836
:100F900008D07F1CFFB2082FE6D3761CF6B23F2E96
:100FA000DCD39AE709F101002C461FFA80F9F4E737
:100FB00008EB06005FF0000790F802C05FEA0C60E3
:100FC00002D5DAF8042001E0DAF80020494620468C
:100FD000FFF755FD4FEA4C60641C4FEA106CA4B259
:100FE000601B182808D07F1CFFB2082FE6D3761CA0
:100FF000F6B23F2EDCD370E709F101002C461FFA50
:1010000080F9F4E730B514460D46024621462846DD
:10101000FFF794FF182030BD30B514460D46024648
:1010200021462846FFF727FF122030BD2DE9F84F53
:101030009A4615460C46064600274FF4F0784FF4C2
:1010400088792A78002A3AD0F01986B2802A15D9F0
:1010500006F11800404505D916340026A4B24C45C7
:1010600000D900242846FFF7A3FE80B2534622464B
:101070003146FFF7C7FF0746AD1CE2E70D2A15D042
:101080000A2A1AD006F10C00404505D90C34002676
:10109000A4B24C4500D90024474841680091036838
:1010A00021463046FFF768FD6D1CCAE71634A4B22E
:1010B0004C4500D900240027F6E70026FBE7BDE8F1
:1010C000F88FF8B50F463C4906463C4815460024C3
:1010D00048602878002829D0A0F13001092901D8DA
:1010E00088B208E02E2819D02D2819D0202819D030
:1010F000562819D00E2000EBC001C1EB80103049FA
:10110000372301EB80000090301980B2202239464D
:10111000FFF77CFE2034A4B26D1CDAE70A20EAE770
:101120000B20E8E70C20E6E70D20E4E7F8BD2DE909
:10113000F8430646994615460C4600204FF4F077D2
:101140004FF488782A78002A45D0304486B2802A25
:1011500014D906F11000B84205D910340026A4B203
:10116000444500D900242846FFF738FE80B24B469C
:1011700022463146FFF750FFAD1CE3E70D2A21D090
:101180000A2A26D006F10800B84205D908340026FC
:10119000A4B2444500D9002407484168009103687F
:1011A00021463046FFF7E8FC0A206D1CCAE7000024
:1011B0004EEC0000850A0100100000103434650078
:1011C000B03401001034A4B2444500D900240020FA
:1011D000EBE70026FBE75AE52DE9F843064699467A
:1011E00015460C4600204FF4F0774FF488782A78A3
:1011F000002A3AD0304486B2802A14D906F1100071
:10120000B84205D910340026A4B2444500D90024C0
:101210002846FFF7E3FD80B24B4622463146FFF7F2
:10122000FBFEAD1CE3E70D2A16D00A2A1BD006F1FF
:101230000800B84205D908340026A4B2444500D9B4
:101240000024484841680091036821463046FFF772
:10125000BEFC08206D1CCAE71034A4B2444500D976
:1012600000240020F6E70026FBE710E5F0B5062A8B
:1012700001D90A2201E002B90122052900D905217C
:10128000914200D911460025374C202666556D1C29
:10129000EDB20C2DFAD315460A270DE0B0FBF7FC92
:1012A00007FB1C0CB0FBF7F004EB050E0CF1300C47
:1012B0006D1E0EF801CCEDB2002DEFD169B11046D4
:1012C00005E0251815F8015C2554401EC0B2491EE2
:1012D000C9B2F6D22E21215400E0A65473B90020E1
:1012E000511E09E0235C302B08D123185B782E2B8C
:1012F00004D02654401CC0B28842F3DB521CD0B24A
:10130000002102E02154401CC0B20C28FAD3F0BDE9
:1013100010B5164A00214FF4FF3400BF50F8033BCC
:10132000491C23F07F4342F80439A142F6D310BD93
:10133000F0B50F4A00234FF4F0754FF48876002182
:1013400010F8014B491C10F8017B240444EA0724DF
:1013500010F8017B3C4310C2A942F1D35B1CB3429D
:10136000EDD3F0BD100000104C43001000F808A0B1
:10137000000001A02DE9F84F0024A2464FF04C09CF
:1013800040F20F18FE4F4FF04E0BFE48009004EB5A
:101390004401A00001EB041100EB810004EB840583
:1013A00009EB051680B2B2B24346E421FFF74CFBCD
:1013B000012000EB0510E323B2B280B2194600977A
:1013C000FFF76BFBB2B2B0B24346E3210097FFF7E1
:1013D00064FB4D2000EB051082B2564680B24346B6
:1013E000E321CDF800A0FFF758FB0BEB051082B20C
:1013F00080B24346E3210096FFF74FFB4F2000EBFE
:10140000051082B280B24346E3210096FFF745FB08
:10141000641C062CB9D3BDE8F88F10B5FFF7AAFFFE
:10142000D948D849002341606FF07F410160D7A2BD
:10143000F1215420FFF77BFE0023F121BDE810408D
:10144000D4A2A420FFF773BE70B50446FFF792FF45
:10145000CD48CC49D14D41606FF07F4154260160A9
:1014600094B1002404EB440005EB400204EB84003B
:1014700006EB00100023F1211E32FFF758FE641C1A
:10148000E4B2052CEED370BD04EB440005EB400242
:1014900004EB840006EB00100023F121FFF747FE68
:1014A000641CE4B2052CEFD370BD10B5FFF762FFEA
:1014B000B548B449002341606FF07F410160F121DC
:1014C000BDE81040B6A25420FFF731BE10B5FFF7BB
:1014D00051FFAD48AB49002341606FF07F4101608F
:1014E000F121BDE81040B0A25420FFF720BE10B596
:1014F0000446FFF73FFFA449A2486FF07F425CB368
:10150000012C5AD1C1E900200023A8A2E7215420D0
:10151000FFF70DFE0023A7A2FB215420FFF707FED3
:101520000023A6A2E721A420FFF701FE0023A5A225
:10153000FB21A420FFF7FBFD4FF4CA740023A3A2F4
:10154000E7212046FFF7F3FD0023A2A22046BDE8D5
:101550001040FB21FFF7EBBDC1E9002000239FA253
:10156000E7215420FFF7E3FD00239EA2FB21542036
:10157000FFF7DDFD002399A2E721A420FFF7D7FDA7
:1015800000239AA2FB21A420FFF7D1FD002399A2FA
:10159000E721F420FFF7CBFD002394A2FB21F420E8
:1015A000FFF7C5FD4FF4A274002392A2E721204665
:1015B000FFF7BDFD002391A2C8E710BD10B5FFF7EE
:1015C000D9FE71486FF07F41002301606D49416091
:1015D0008CA2E7215420FFF7AAFD00238BA2FB2158
:1015E0005420FFF7A4FD00238AA2F1214FF4A2703A
:1015F000FFF79DFD0023BDE8104088A2F1214FF4C4
:10160000CA70FFF794BD70B50446FFF7B3FE5E499C
:101610005C486FF07F424FF4A2754FF4CA761CB35A
:10162000012C21D0C1E9002000237EA2F121542009
:10163000FFF77DFD00237DA2E721A420FFF777FDC2
:1016400000237CA2FB21A420FFF771FD002371A2DF
:10165000F1212846FFF76BFD3046BDE870400023BE
:101660006EA2F121FFF763BDC1E9002000236DA246
:10167000F1215420FFF75BFD002370A2E721A42095
:10168000FFF755FD002369A2FB21A420FFF74FFDC2
:1016900000236CA2E721F420FFF749FD0023FB2182
:1016A00062A2F420D0E710B50446FFF763FE364986
:1016B00034486FF07F42002C31D0012C5ED1C1E95B
:1016C0000020002339A2E7215420FFF730FD00233A
:1016D00038A2FB215420FFF72AFD002345A2E72171
:1016E000A420FFF724FD002340A2FB21A420FFF744
:1016F0001EFD002355A2F121F420FFF718FD4FF441
:10170000CA74002331A2E7212046FFF710FD002311
:1017100030A22046BDE81040FB21FFF708BDC1E91B
:10172000002000232DA2E7215420FFF700FD002315
:101730002CA2FB215420FFF7FAFC002327A2E7216B
:10174000A420FFF7F4FC002328A2FB21A420FFF72C
:10175000EEFC002327A2E721F420FFF7E8FC00239A
:1017600022A2FB21F420FFF7E2FC4FF4A274002335
:1017700020A2E7212046FFF7DAFC6BE06EE00000D4
:10178000684369003800310010000010206DA6B8D1
:101790002020000020A6B820000000008E7101006B
:1017A00020C8B7C8CF2000002A310000CEC4BCFE3C
:1017B00000000000B9DCC0ED00000000B1A3B4E6F9
:1017C00000000000CAFDBEDD00000000B8FCB6E06D
:1017D0000000000020322F3200000000B2E2C1BF42
:1017E00000000000CFD4CABE00000000C9E8D6C384
:1017F00000000000CFB5CDB300000000D0C5CFA2DF
:1018000000000000C7E5B3FD00000000B1EDB8F135
:1018100000000000C9CFD2BBD2B30000CFC2D2BB00
:10182000D2B30000C9BEB3FDD0D00000D7D4B6AF4C
:1018300000000000B8B4D6C600000000CFDFD0D44E
:1018400000000000B6D4CAFD00000000B9A4BEDF4D
:10185000000000000023AFF25C025AE710BD10B593
:101860006FF07F41FE4800230160FE49AFF2940211
:101870004160E7215420FFF75AFC0023AFF29C029D
:10188000FB215420FFF753FC0023AFF2B002E72105
:10189000A420FFF74CFC0023AFF2B002FB21A420F0
:1018A000FFF745FC0023AFF2B402E721F420FFF775
:1018B0003EFC0023AFF2CC02FB21F420FFF737FC03
:1018C0000023AFF2D0024FF4A274E7212046FFF7C5
:1018D0002EFC0023AFF2DC022046BDE81040FB21C5
:1018E000FFF725BC38B5C0EB0010782101EBC00133
:1018F0008AB24FF6FF71DC4C01EAC00016230021CA
:101900000094FFF7A1F840F20F1340F2DF12FD211F
:1019100000200094FFF798F838BD08B5D348009030
:10192000FD234FF4F0725C210020FFF78DF808BD15
:1019300010B50020FFF7D6FFBDE81040EDE72DE918
:10194000F05FFFF7F5FFC6486FF07F4A00244FF0C5
:101950005019C74D8046DFF810B3C64E4FF6FF77DB
:10196000C0F800A003E014B1C8F8049001E0C8F882
:1019700004B004EB840000EBC40006EB400195F8D2
:101980006A00002300EB800202EBC0000A18C4EBDF
:10199000041007EAC0000421FFF7C9FB641C042CF3
:1019A000E1D3C8E900A90024B34E4FF01A0801E0C2
:1019B000032C17D295F86A1004EB840006EB800024
:1019C00001EB810100EB410204EB440000EBC40198
:1019D00008EB410081B200231846FFF7A8FB6FF027
:1019E000270714E095F86A1004EB840006EB8000EA
:1019F00001EB810100EB410204EB440000EBC40069
:101A000007EB400081B20023FA20FFF790FB641C33
:101A1000062CCDD3BDE8F09F08B594480090BE23B6
:101A200040F2DF1270210020FFF70EF808BD10B55C
:101A30000020FFF757FFFFF79DFCBDE81040EBE7E4
:101A400038B5874D04464FF0501068608B4801232D
:101A500000EB8402C8211420FFF769FB87480123AB
:101A60005C3000EB8402C8214FF48C70FFF75FFB01
:101A70007E48686082480090372328227A215020CF
:101A8000FFF7C4F97F480090372328227A21782075
:101A9000FFF7BCF97C480090372328227A218C205C
:101AA000FFF7B4F938BD2DE9F041FFF7C0FF6C4CEA
:101AB0006D486FF07F45C4E900506E4A00237E32C6
:101AC00004211846FFF733FB4FF05010C4E90050D3
:101AD00000246E4D1A276FF0270601E0032C0BD26D
:101AE00004EB440000EBC40007EB400081B200238C
:101AF00005EBC40218460AE004EB440000EBC40006
:101B000006EB400081B205EBC4020023FA20FFF788
:101B10000EFB641C072CE1D35D4890F8B803FFF777
:101B20008FFFBDE8F0410020E1E438B54F4C40F2B2
:101B3000DF15A0232A46562100200094FEF784FFDB
:101B4000E3232A46C12100200094FEF77DFF38BD23
:101B500010B50020FFF7C6FEFFF70CFCBDE81040F3
:101B6000E3E70B464B4930B4085C183100EB40000A
:101B7000441891B2224698B230BC0023FFF7D7BA7E
:101B80002DE9F041FFF7E4FF354D37486FF07F4412
:101B9000C5E90040374A0023943204211846FFF774
:101BA000C6FA4FF05017C5E900473B4E00244FF6E8
:101BB000FF7800BFC4EBC400821904EB840108EA7B
:101BC000411000231A21FFF7B2FA641C032CF1D351
:101BD0002F4E0123D6F8C00300EB400101EBC000FB
:101BE0002649D43142181A213C20FFF7A0FA96F872
:101BF0000C1100230622D6F80801FFF737FB01235A
:101C0000264A1A21DC20FFF792FAD6F81001214962
:101C100000EB40001539421801231A214FF491704E
:101C2000FFF785FA1A224FF49671D6F8B803FFF73A
:101C300098FF00231AA22E211846FFF7CDFA0023A1
:101C400018A22E217820FFF7C7FA002317A22E2111
:101C5000F020FFF7C1FA002316A22E212EE000008B
:101C60001000001038003100F352030034346500D6
:101C700024010010D46E0100B26601003A68010030
:101C800035490100785B01008B5C0100326C01007A
:101C90008C020010DF7101002E7001004C43001017
:101CA00042494E004C4F57205B465D00484947482B
:101CB0005B465D00434F554E540000004FF4C87022
:101CC000FFF78AFA0624DFF8348409E0A4F108005B
:101CD000052802D3A01F082802D9C5F8048000E017
:101CE0006F60C4EBC40006EBC00151F8200C60B17A
:101CF00011F81C1C01230622FFF7B8FAC4EB0410EC
:101D0000203881B20123FE4A05E0C4EB04102038DC
:101D100081B20123FBA27820FFF75EFA641C0F2C2E
:101D2000D4D3C5F80480D6F80C0340B196F810134C
:101D300001230622FFF79AFA0123F14A01E0012369
:101D4000F0A2C4217820FFF747FA10240AE000BF70
:101D5000A4F11200052802D3801C082802D9C5F876
:101D6000048000E06F60C4EBC40006EBC001A1F585
:101D70008051D1F8CC0D60B191F8D01D012306221D
:101D8000FFF774FAC4EB0410B63881B20123DC4AC1
:101D900005E0C4EB0410B63881B20123D9A2FA20C1
:101DA000FFF71AFA641C192CD2D3C5F80480D6F8B0
:101DB0000C0350B196F8F41201230622D6F8F00273
:101DC000FFF754FA0123CE4A01E00123CDA2C4213A
:101DD000FA20FFF701FA4646B8460124CB4F04E04B
:101DE000E01E052801D26E6001E0C5F8048004EB16
:101DF000C400C219C4EB04102B3081B200230820A8
:101E0000093AFFF7E9F9641C0A2CE9D30023C0A2C0
:101E1000C42118466E60FFF7DFF90023BDA2D4216C
:101E20001846FFF7D9F90023BCA2D421F020FFF710
:101E3000D3F9BDE8F0410020FFF759BB08B5AF4822
:101E40000090A02340F2DF1260210020FEF7FCFD8D
:101E500008BD10B50020FFF745FDFFF78BFABDE880
:101E60001040EBE770B5FFF7F4FFAE4CAE486FF0F3
:101E70007F45C4E900500023AC4A04211846FFF70F
:101E800056F94FF05010C4E900500023A8A21A21BF
:101E90001846FFF74CF90023A7A230212820FFF7AE
:101EA00046F90023A7A230218C20FFF740F9002338
:101EB000A6A23021F020FFF73AF90023A5A2302195
:101EC0004FF4AA70FFF733F90023A4A230214FF496
:101ED000DC70FFF72CF9BDE870400020FFF707BB6E
:101EE00008B5864800909A2340F2DF125A2100205C
:101EF000FEF7AAFD08BD10B5FFF7F4FCBDE81040E1
:101F0000EEE72DE9F05F0120FFF7F5FF8548874DEB
:101F10006FF07F4B00244FF0501A914EDFF808927B
:101F2000AA3D4FF6FF778046C0F800B001E0012CD3
:101F300002D0C8F804A001E0C8F8049004EB8400C3
:101F400000EBC40005EB400196F86A00002300EBAB
:101F5000800202EBC0000A18C4EB041007EAC000BC
:101F60000421FFF7E4F8641C042CE0D34546002468
:101F7000C5E900BADFF884917A4F4FF01A0BD046CA
:101F800007E0092C1FD2E01E032802D2C5F80490F6
:101F900001E0C5F8048004EB840007EB800196F8AB
:101FA0006A00002300EB800001EB400204EB4400D8
:101FB00000EBC4010BEB410081B21846FFF7B7F804
:101FC0006FF0AB0A1DE0A4F10C00032802D2C5F8A3
:101FD000049001E0C5F8048004EB840007EB800165
:101FE00096F86A00002300EB800001EB400204EB4E
:101FF000440000EBC4010AEB410081B2FA20FFF774
:1020000096F8641C122CBCD304E52DE9F843454C2A
:10201000DFF854914FF050180646C4F80480D9F800
:10202000B803524900EBC000421801231A2158207E
:1020300009F56E75FFF77BF8A868012300EB4001F6
:1020400001EBC0004A49421830215820FFF76FF8D1
:10205000E868012300EB400101EBC00145480A1884
:1020600046215820FFF763F8286E4FF4A97700EB5C
:10207000400101EBC0003F490023213142181A21E1
:102080003846FFF754F8A86E012300EB400101EB3E
:10209000C00034499F39421846213846FFF747F8B7
:1020A000686E304D00EB400101EBC0007E3D4219EF
:1020B000012330213846FFF73AF8307801285FD005
:1020C0004046606000906E234FF4DD725A2138461E
:1020D000FEF7BAFCD9F82801012300EB400101EB1F
:1020E000C00042195C213846FFF721F8FFF742F99A
:1020F0003078012846D000203EE0000034346500EE
:102100004C4300102D2D2D2D2D2D0000BD64010000
:10211000326E64004155583A000000004F55543A61
:102120000000000010000010F35203007E6F010059
:10213000B7BDCABD203A0000C6B5C2CA5B487A5DC9
:1021400000000000B5E7C6BD5B565D0043705B460E
:102150005D000000445B205D00000000434D500026
:10216000240100106A6C01008C02001062670100FB
:102170000E690100FB6A0100BDE8F843FFF7B7B93B
:10218000FF209EE76FF07F402060FD4860600024E4
:102190005FF0540604EB440000EBC400421904EB6A
:1021A000840006EB001080B20023F121FEF7BFFF90
:1021B000641C022CEED3BDE8F883F8B5F14C05465B
:1021C0004FF0501060602878012801D0606801E06D
:1021D000FF2060604FF4BE7700902A234FF4D7723F
:1021E0001A213846FEF730FCE748E84E0123D0F8C4
:1021F0005C0300EB400101EBC00082191A21384654
:10220000FEF795FFFFF7B6F82878012804D0BDE85F
:10221000F8400020FFF76BB96FF07F402060D8488E
:10222000606000245FF0540504EB440000EBC40040
:10223000821904EB840005EB001080B20023F12129
:10224000FEF775FF641C022CEED3F8BD2DE9F05F9C
:102250000124DFF83C93DFF82C83CB4D4FF4AD7BAA
:102260004FF0501A3326E71E042F02D2C8F804900C
:1022700001E0C8F804A095F87D0400EB800004EBB1
:10228000400000EB800005EB8001D1F81806421CED
:102290003DD091F81C1601230522FEF7E7FFBD4A49
:1022A00006EB04110023F620FEF796FF95F87D0457
:1022B00000EB800004EB400000EB800005EB8001A8
:1022C00001F58051D1F88006421C25D091F8841682
:1022D00001230522FEF7CAFFAE4A06EB04110023D4
:1022E0005846FEF779FF95F87D0400EB800004EB7B
:1022F0004000284400F5005090F8F306FF2810D065
:1023000006EB04114FF0000380B1A3A20FE006EB2F
:1023100004110023A1A2C6E706EB041100239FA22B
:10232000DEE706EB041100239EA200E09EA24FF41C
:10233000DF70FEF751FF042F02D2C8F8049001E0CD
:10234000C8F804A095F87D0400EB800004EB400081
:10235000284490F87D041E2804D906EB04110023BC
:102360008EA208E000EB400101EBC0008F4942184B
:1023700006EB041100232620FEF72EFF95F87D04BE
:1023800000EB800004EB4000284490F84F05022841
:1023900004D906EB0411002380A209E000EB400100
:1023A00001EBC0007949F139421806EB0411002312
:1023B0009220FEF711FF95F87D04012300EB8000C9
:1023C00004EB400003220021FEF750FF06EB04114E
:1023D0000023704A0820FEF7FFFE641CE4B20B2CB9
:1023E000FFF441AF10E62DE9F84F054600780228CA
:1023F0000CD002D9A878FFF706F92878614C4FF085
:10240000FF0B4FF05017012803D004E0FFF7D6F878
:10241000F3E7A878C8B13846676000902A235E22A7
:102420001A213620FEF710FBDFF85C81604900239B
:10243000D8F8840300EBC00042181A213620FEF7BA
:1024400076FE2878022804D006E05846C4F804B086
:10245000E3E7A87800287CD03846676000904223E4
:102460001E2232210020FEF7EFFA002351A2322172
:102470001846FEF75CFEC2460326A146B8462878F9
:10248000B04202D1A878022879D0C9F8048000BFF0
:10249000D9F804000090232000EB0613132000EB72
:1024A00006111F460C464FF49972FA20FEF7CCFA3B
:1024B000E87800EB800006EB400000EB80010AEBBF
:1024C0008101D1F8F005421C76D091F8F415012372
:1024D0000522FEF7CBFE2F4A21460023FA20FEF705
:1024E0007BFE2878B04202D1A878032865D0C9F8CD
:1024F000048000BFD9F8040000903B4621464FF409
:10250000C1724FF4A570FEF79FFAE87800EB8000E7
:1025100006EB400000EB80010AEB810101F58051E0
:10252000D1F85806421C7AD091F85C160123052296
:10253000FEF79CFE174A2146002300BF4FF4A5700A
:10254000FEF74AFE2878B04202D1A87804287DD050
:1025500000E066E0C9F80480D9F8040000903B462A
:10256000214640F2DF124FF4D270FEF76DFAE878A0
:1025700000EB800006EB400101EB0A001EE054E096
:1025800038003100100000108C020010EC6B0100CC
:10259000343465004C430010500000002D2D2D2DCB
:1025A000000000002D000000460000000E69010040
:1025B000626701004E6F2E003AE03EE000F50050E9
:1025C000214690F8F1064FF00003FF2841D0AFF20A
:1025D000380200BF4FF4D270FEF7FEFD2878B042FB
:1025E00001D1A87888B3C9F8048000BFD9F80400E5
:1025F00000903B4621467E222820FEF725FAE87807
:1026000000EB800006EB400101EB0A0090F87B0430
:10261000302824D921460023AFF2800227E00FE0C2
:1026200014E05846C4F804B018E7C9F804B02FE71E
:1026300021460023AFF29C0250E7C9F804B059E7E5
:1026400021460023AFF2AC0278E705E0C9F804B0F8
:1026500082E7AFF2B802BDE7C9F804B0C6E700EB05
:10266000400101EBC000FE4942182146002328200A
:10267000FEF7B2FD2878B04202D1A87801281AD01E
:10268000C9F80480D9F8040000903B462146C422D2
:102690007E20FEF7D9F9E87800EB800006EB4001D8
:1026A00001EB0A0090F84D05022807D921460023C6
:1026B000AFF218120AE0C9F804B0E3E700EB4001FA
:1026C00001EBC000E7494218214600237E20FEF7B7
:1026D00083FDC9F80480E878012300EB800006EB55
:1026E000400003220021801EFEF7C0FD214600238A
:1026F000DD4A0820FEF770FD761CF6B20D2EFFF4C1
:10270000BEAEBDE8F88F2DE9F843D84C4FF0501617
:10271000054666600078FF27012800D16760606881
:1027200000902A2358221A213020FEF78DF9D04834
:10273000DFF84083012390F87C0400EB800101EB7B
:1027400008021A213020FEF7F2FC287802281CD05B
:1027500066606068009040231E2230210820FEF74A
:1027600073F90123AFF2B41230210820FEF7DFFC29
:102770002A78C1486FF07F41012A08D0022A19D077
:102780006878BDE8F843FEF7B2BE6760E1E7C4E9E8
:10279000001000244546542604EB8400421906EB41
:1027A000001080B20023FD21FEF7C1FC641C022C46
:1027B000F2D300E5C4E90010AE4D00240A354FF411
:1027C000A27600BFC4EBC400421904EB840006EB00
:1027D000001080B20023FD21FEF7A9FC641C022C2E
:1027E000F0D3E8E42DE9F84F05460078FF269F4C2A
:1027F0004FF0501701286AD06760606800902C2362
:10280000C02218215820FEF71FF9DFF87082606897
:10281000009098F800001A213130C2B2702023686D
:10282000FEF7AAF92878022853D0676098F80010BC
:10283000002301EB810108EB81000422008A194684
:10284000FEF714FD606800904223C022302158201A
:10285000FEF7FAF80023844A30215820FEF767FC7F
:10286000002387A230218A20FEF761FC2878032804
:1028700031D0676098F80010002301EB810108EB6C
:1028800081000422408A1946FEF7F0FC6068582354
:102890000090C02246211846FEF7D6F80023724A5F
:1028A00046215820FEF743FC002375A246218A20CA
:1028B000FEF73DFC287804280FD0676071484FF47C
:1028C000DD7A4FF4A9790068112808D022E066600B
:1028D00093E76660AAE76660CCE76660EEE760684B
:1028E00000902C23524618214846FEF7ADF898F880
:1028F0000010002301EB810108EB8100808900EBCF
:10290000400101EBC0005749213142181A214846C5
:10291000FEF70DFC2878052843D0676098F8001072
:10292000002301EB810108EB810004228088194615
:10293000FEF79CFC60680090422352462E214846D8
:10294000FEF782F80023484A30214FF4AE70FEF7BC
:10295000EEFB4FF4C17A00234BA230215046FEF724
:10296000E6FB287806281ED0C4F8047098F80010FA
:10297000002301EB810108EB81000422C0880121C2
:10298000FEF774FC0023384A46214846FEF7CFFB89
:1029900001B05046BDE8F04F00233CA24621FEF7AF
:1029A000C6BB6660BAE76660E0E72DE9F84F04460B
:1029B0000078FF262D4D4FF0501701286CD06F6026
:1029C000686800902C23C02218215820FEF73CF89C
:1029D000DFF8A8806868009098F800001A2131306C
:1029E000C2B258202B68FEF7C7F8207802287DD0A5
:1029F0006F60686800904223C0222E215820FEF7A5
:102A000023F898F80010DFF888B001EB810108EB9B
:102A1000810198F86A004988C0EBC000C1EBC1028F
:102A20000BEB42010A18C146002330215820FEF763
:102A30007EFB2078DFF85C8003287DD04046C5F817
:102A4000048000906E23C0225A215820FDF7FCFF1D
:102A500099F8001001EB810109EB810080881CE0EE
:102A60000E690100FB6A01004C43001010000010C9
:102A70008C020010026C01003800310024010010AB
:102A80004DA6B800940000102056000020730000EE
:102A90002A6701003434650062E1002304221946EC
:102AA000FEF7E4FB0023FA4A5C216020FEF73FFBBF
:102AB0000023F8A25C219620FEF739FB2078042839
:102AC0007DD0C5F8048000BF99F80010002301EB09
:102AD000810109EB81000422C0880121FEF7C6FBB9
:102AE00068688423C0227021009000E03AE15820F9
:102AF000FDF7AAFF0023E64A72216220FEF717FBCA
:102B00000023E5A272219620FEF711FB207805280C
:102B10007ED06F6068680090B023C0229C2158204E
:102B2000FDF792FF99F8001001EB810109EB81019B
:102B30000989C1EBC10200E017E1DFF860A399F851
:102B40006A000AEB4201C0EBC0000A1800239E2174
:102B50005820FEF7ECFA207806287CD06F60686871
:102B60000090C623C022B2215820FDF76DFF99F8CE
:102B7000001099F86A0001EB810109EB8101C0EBBB
:102B8000C00049890023C1EBC102C44901EB4201E5
:102B90000A18B4215820FEF7CAFA207807287DD0F9
:102BA0006F6068684FF4A97A00902C234FF4DD72AF
:102BB00018215046FDF748FF99F8001000E0D7E0D3
:102BC00001EB810109EB81000023808900EB4001CA
:102BD00001EBC001B2480A181A215046FEF7A7FAC5
:102BE000207808287ED06F606868009042234FF4F8
:102BF000DD722E215046FDF727FF99F8001001EBFA
:102C0000810109EB8101C989C1EBC102A44900E03E
:102C1000B0E099F86A004B3901EB4201C0EBC0000B
:102C20000A18002330215046FEF781FA207809283F
:102C30007DD0C5F8048000BF99F80010002301EB97
:102C4000810109EB81000422008A1946FEF70EFB80
:102C500068686E2300E08FE000904FF4DD725A2127
:102C60005046FDF7F1FE0023894A5C215046FEF7ED
:102C70005EFA0023AFF2F8125C214FF4C270FEF747
:102C800056FA20780A287FD0C5F8048099F80010F9
:102C900001EB810109EB8100408A00E06EE0002336
:102CA00004221946FEF7E2FA6868009084234FF484
:102CB000DD727021D0465046FDF7C6FE0023744AEF
:102CC00072214046FEF733FA0023AFF24C22722104
:102CD0004FF4C270FEF72BFA20780B2856D06F60A5
:102CE000686800E04CE00090B0234FF4DD729C2156
:102CF0004046FDF7A9FE99F80000684F00EB800000
:102D000009EB800099F86A10808AC1EBC101C0EB21
:102D1000C00007EB400042184E4600239E2140466B
:102D2000FEF705FADFF87C8140F20F1300E029E09E
:102D300040F2DF12FD210020CDF80080FDF784FE77
:102D40006FF07F40C5E90008207854240C283AD25F
:102D5000DFE800F0391E213A3D40587084BCBCC504
:102D60006E602DE66E6044E60EE030466E6068E60A
:102D70006E60A9E66E60CDE66E60F0E66E6010E70C
:102D80006E6031E76E6057E76E607FE76E60A7E7C1
:102D9000002345A29CE000254FEA0B0796F86A1035
:102DA000C5EBC50007EB4000C1EBC101421805EBC4
:102DB000850004EB001080B20023FE21FEF7B7F976
:102DC0006D1C022DEAD39CE400233AA280E000238C
:102DD0003BA27DE05FF0000596F86A10C5EBC500E8
:102DE00007EB4000C1EBC101421805EB850004EB85
:102DF000001080B20023FE21FEF799F96D1C022D10
:102E0000EAD37EE45FF0000596F86A10C5EBC500D2
:102E100007EB4000C1EBC101421805EB850004EB54
:102E2000001080B20023FE21FEF781F96D1C022DF7
:102E3000EAD366E41A4E002505EB450000EBC50019
:102E4000821905EB850004EB001080B20023FE21FF
:102E5000FEF76DF96D1C052DEED352E4104F0025E1
:102E6000B7F14B0796F86A10C5EBC50007EB4000B9
:102E7000C1EBC101421805EB850004EB001080B2E4
:102E80000023FE21FEF753F96D1C032DEAD338E42D
:102E90004C4300105600000073000000466701001C
:102EA0001C6B0100F3520300D7E9B1F0312DD7E9D3
:102EB000B1F035003235562D31303030560000003B
:102EC00030532D3939392E39530000000023FEA22A
:102ED00001B0FE21BDE8F04F5420FEF728B90025CF
:102EE00096F86A10C5EBC50007EB4000C1EBC101C5
:102EF000421805EB850004EB001080B20023FE2190
:102F0000FEF715F96D1C022DEAD35CE730B40C46D0
:102F1000EF49134600EB40004218A0B299B230BC12
:102F20000123FEF759B92DE9F84FEA4CEA4E4FF06C
:102F30005019C4F80490D6F8201105464FF4B47027
:102F400000297DD00023E5A24121FEF745F90023A9
:102F5000E2A24121C820FEF73FF92878FF27012887
:102F60006FD04846C4F8049000902C23702218219A
:102F70004620FDF769FDD6F8B803D94900EBC0003B
:102F8000421801231A214620FEF7D1F8287802289A
:102F90007DD0C4F8049000BF96F80C1100230522E0
:102FA000D6F80801FEF762F9606800902A234FF412
:102FB00092721A21E220FDF747FD0123C94A1A2126
:102FC000E220FEF7B4F8D6F81001012300EB40012F
:102FD000BF482D380A181A214FF48E70FEF7A7F853
:102FE000287803286AD04846C4F804904FF4C07883
:102FF00000902C234FF4E27218214046FDF724FD87
:10300000B948D6F82011012300EB81021A2140466D
:10301000FEF78DF82878042853D04846C4F8049069
:103020000090422370222E214620FDF70DFDD6F898
:103030000001DFF8B88200EB800101EB080201E03B
:1030400029E036E0002330214620FEF770F828788A
:10305000052839D0C4F8049060680090A346422344
:103060004FF4AB722E21FA20FDF7EEFCD6F82801C2
:10307000012300EB80019D480A183021FA20FEF759
:1030800056F80624B2462878A0421FD100E013E08B
:10309000CBF8047024E0D6F8B83301464122184634
:1030A000FFF734FF4122C821D6F8B803FFF72EFFFF
:1030B00053E73846676057E767606DE738466760F3
:1030C00094E738466760ABE76760C5E7A4F109009D
:1030D000042803D28648CBF8040001E0CBF8049022
:1030E000DBF80400C4EB04160090701C83B20E3EA3
:1030F000B1B2DC229820FDF7A7FCC4EBC4010AEBB7
:10310000C10858F8200C70B318F81C1C00230522C5
:10311000FEF7ACF8B1B20123AFF678329820FEF793
:103120005BF8B1B201236F4AA020FEF755F8DAF838
:10313000200158B958F8180C012300EB40016448ED
:103140002D380A18B1B2D020FEF746F8641C102CB6
:1031500099D3D84610244FF4A07B2878A04208D1F8
:10316000C8F804700FE0FFE70123B1B2614AA02064
:10317000EAE7A4F11300042803D25D49C8F804105B
:1031800001E0C8F80490D8F80400C4EB04160090DD
:10319000A6F1910083B2A43EB1B24FF4BE7258467C
:1031A000FDF752FC4C48C4EBC40100EBC101A1F592
:1031B000805ADAF8CCCDBCF1000F2ED09AF8D01D91
:1031C000002305226046FEF751F8B1B20023454ABC
:1031D0005846FEF701F84048D0F8200160B9DAF807
:1031E000D40D012300EB400139482D380A18B1B243
:1031F0004FF4B870FDF7F0FF641C1A2CADD3FEF746
:10320000B9F82A783C4954266FF07F40062A47D205
:10321000DFE802F00820200D2134B1B20123354A45
:103220005846E7E76878BDE8F84FFEF73CBA2E4D00
:103230000024C8E9000100BF04EB840006EB001085
:1032400005EB840280B20023F121FDF770FF641CBE
:10325000022CF1D3B7E5254D0024C8E9000100BFD9
:1032600004EB8400421906EB001080B20023F12128
:10327000FDF75DFF641C022CF2D3A4E51B4D002476
:10328000C8E9000104EB8400421906EB001080B28B
:103290000023F121FDF74BFF641C022CF2D392E5D1
:1032A000002316A2F1215420FDF741FF4FF4CA7408
:1032B0000023144AE7212046FDF739FF114A002375
:1032C0000832FB2120461FE0302D393939394D00B5
:1032D000F7710100100000108C02001025000000A2
:1032E000626701004C430010B5640100286C0100C6
:1032F000343465000421000038003100C7E5B3FD17
:10330000D0D000000418000001B0BDE8F04FFDF778
:103310000EBF70B500250446FF4928462B460B54C6
:10332000401CC0B20628FAD3FC4E0022B018C07868
:103330008854302802D93038885400E08B54521C0D
:10334000D2B2042AF2D300224FF6FF7305EB8500B8
:103350008D5C03EA4000521C2844D2B285B2042A94
:10336000F4D3EF480023815C04222846FDF77EFF5A
:103370002078BDE8704000EB400101EBC0001A214D
:1033800001EB40010123E44A4FF4A070FDF7CFBEEA
:103390002DE9F84FE34DDFF888B3074600244FF0DE
:1033A00050184FF042094FF02E0A3978601C8142C4
:1033B00001D1FF2000E040466860009004EB44002B
:1033C00000EBC40609EB460083B20AEB460081B26B
:1033D000E822A020FDF738FBD3481BF8041000EBCF
:1033E00044000023B0F86C000422FDF73FFF3020BA
:1033F00000EB460081B20123C74AA020FDF797FEEB
:10340000641C052CD1D3C5F80480DCE42DE9F84F09
:1034100005460078FF26C34C4FF0501701287CD09A
:103420006760606800902C23C0221A216420FDF799
:103430000BFBDFF8F482DFF8F4A2002398F86610A3
:1034400098F86A00C1EBC1020AEB4201C0EBC00070
:103450000A181C216420FDF76AFE287802287DD016
:103460006760606800904223C02230216420FDF72D
:10347000EBFA98F86700DFF8B8B2C0EBC00101EBD7
:103480000B02002332216420FDF751FE2878032827
:1034900065D06760606800905823C0224621642090
:1034A000FDF7D2FA98F8681098F86A00C1EBC102EB
:1034B0000AEB4201C0EBC0000A1800234821642037
:1034C000FDF735FE2878042875D0676060680090A5
:1034D0006E23C0225C216420FDF7B6FAC14698F83D
:1034E000691099F86A00C1EBC1010AEB4101C0EB18
:1034F000C0000A18D04600235E216420FDF717FEA5
:103500002878052859D06760606800908423C0221D
:1035100072216420FDF798FA00E045E0DFF810A280
:1035200099F86A10AAF1100A0AEBC102002374216B
:103530006420FDF7FCFD2878062840D067606068AD
:1035400000909A23C02288216420FDF77DFA002391
:103550004E4699F86B000322194601E027E028E067
:10356000FDF784FE00236C4A8A216420FDF7DFFD0D
:10357000704F40F20F1340F2DF12FD210020009740
:10358000FDF762FA6FF07F40C4E9000729786A48C6
:103590006A4F54250C292CD2DFE801F02B132C3E66
:1035A000566E7F8899ABD6E766603AE703E06660BF
:1035B00057E766606EE7666088E76660A4E7666066
:1035C000BDE700244FEA080796F86A10C4EBC40070
:1035D00007EB4000C1EBC101421804EB840005EB8E
:1035E000001080B20023FD21FDF7A1FD641C022C18
:1035F000EAD306E400245E46C4EBC400821904EB5F
:10360000840005EB001080B20023FD21FDF78FFD43
:10361000641C052CF0D30CE400244746C4EBC40022
:1036200007EB400196F86A000023C0EBC0000A18BF
:1036300004EB840005EB001080B2FD21FDF777FD5F
:10364000641C022CEAD308E40024474696F86A106A
:10365000C4EBC40007EB4000C1EBC101421804EB0E
:10366000840005EB001080B20023FD21FDF75FFD13
:10367000641C022CEAD30AE40024564604EB8400BE
:1036800005EB001006EBC40280B20023FD21FDF71C
:103690004EFD641C022CF1D337E401B00023BDE8D9
:1036A000F04FFE2126A25420FDF741BD60600024AA
:1036B00004EB840005EB001007EBC40280B200238A
:1036C000FD21FDF734FD641C022CF1D31DE4606084
:1036D0005FF0000404EB840005EB001007EBC4026C
:1036E00080B20023F121FDF722FD641C022CF1D3EE
:1036F0000BE460605FF0000404EB840005EB001055
:1037000007EBC40280B20023F121FDF710FD641C19
:10371000022CF1D39EE500004C430010084200103B
:10372000B064010010000010240100104667010081
:1037300056710100F352030038003100BB6B0100E9
:10374000312D3235350000006060002404EB840028
:1037500005EB001007EBC40280B20023F121FDF756
:10376000E6FC641C022CF1D374E56060FC4E00247E
:10377000C4EBC400821904EB840005EB001080B296
:103780000023F121FDF7D3FC641C022CF0D361E58A
:103790000020FEF7A7B870B50020FEF7A3F8F14CA3
:1037A000F1486FF07F45C4E900500023EF4A04213F
:1037B0001846FDF7BCFC4FF05010C4E90050EB4D2B
:1037C000002499354FF6FF7604EB840000EBC4002B
:1037D000421904EB840006EA401000231A21FDF789
:1037E000A6FC641C032CEFD3E04D0024C03530262A
:1037F00004EB840000EBC400421904EB440000EB2E
:10380000C40006EB400081B200231846FDF78FFC90
:10381000641C052CECD370BD08B5D5480090B623C8
:1038200040F2DF127A210020FDF70EF908BD10B535
:103830000020FEF757F8FDF79DFDBDE81040EBE7CF
:103840002DE9F047FFF7F3FFDFF81883C648444639
:103850006FF07F45C4E90050C44A002316320421AA
:103860001846FDF764FC4FF05016C4E900560024DA
:10387000C04D4FF6FF79C04F01E0032C08D204EB96
:10388000840109EA4110002305EBC4021A2108E073
:1038900004EB840007EB401005EBC40280B2002368
:1038A0003021FDF744FC641C062CE6D34546B046A7
:1038B000B04E0024AE4F303604E0201F042801D261
:1038C0006F6001E0C5F80480C4EB0410413081B2A0
:1038D000002306EB84021846FDF77EFC641C0B2CCB
:1038E000EBD30023A5A24121A020FDF775FC002306
:1038F000A3A241214FF4A070FDF76EFCA2481A224A
:103900004FF49371D0F8B803FEF72BF9BDE8F047F8
:103910000020FDF7C8BE08B595480090B62340F2D8
:10392000DF127A210020FDF78FF808BD10B50020C6
:10393000FDF7D8FFBDE81040FDF71CBD70B5FFF7DF
:10394000F5FF884C88486FF07F45C4E90050874AEE
:1039500000232C3204211846FDF7E9FB4FF05010EC
:10396000C4E90050834A00235C321A211846FDF74F
:10397000DEFB804D01245C3504EBC40042194D216F
:1039800004FB01F02F3880B200233021FDF7CFFB7C
:10399000641C072CF0D3BDE870400020FDF783BE07
:1039A000F8B500246FF07F465FF02E0504EB44006D
:1039B00000EBC40005EB400083B281B2BE225A2066
:1039C0000096FDF76AF8641C052CEFD3F8BD0220C1
:1039D000FDF788BF2DE9F04162486FF07F41002478
:1039E00001604FF05011694D694E1A27C0F804105C
:1039F00096F86A10C4EBC40000EB4000C1EBC101B3
:103A000005EB400001EB4101421804EB440000EBE0
:103A1000C40007EB400081B200231846FDF787FB86
:103A2000641C032CE4D3BDE8F0812DE9F05F074668
:103A3000FDF758FF4B4DDFF834B16FF07F48544E1F
:103A400000244FF05019ABF1D60B4FF6FF7AC5F8B2
:103A50000080BC4202D0C5F8049001E04248686092
:103A600004EB840000EBC40196F86A000BEB410103
:103A700000EB800202EBC0000A18C4EB04110AEA52
:103A8000C10000230421FDF752FB641C042CE0D389
:103A9000C5E90089022F1AD13C4D00247E351A2732
:103AA00096F86A2004EB440000EBC40002EB4203EA
:103AB00005EB400103EBC2020A4407EB400081B270
:103AC00000231846FDF733FB641C062CE8D3BDE841
:103AD000F09F2DE9F04781460C46486842F20F718D
:103AE0004FF00A08884201D8A06804E0B0FBF8F063
:103AF00060600420A060C0F10406A6606568E0680C
:103B000010B1012804D00DE04FF47A70454309E06C
:103B100028460AF085F900221E4B0AF0D1F90AF076
:103B20003BF9054630460AF07BF902460B46002079
:103B3000194909F071F907460E4628460AF070F94E
:103B40003A46334609F094FF0AF026F9134A012158
:103B50000225904224D9104640F6B83227E00000F2
:103B60001A6C010010000010F3520300AA6F01004C
:103B700034346500AB70010020FEFFFF4C4F57004E
:103B800048494748000000008C020010D26D010037
:103B90002401001080842E410000244080C3C9010C
:103BA000FE4A42F21076904205D3B0FBF6F2626014
:103BB000C4E9025122E0FA4A03234FF47A77904293
:103BC00005D3B0FBF7F26260C4E9023116E0DFF81A
:103BD000D4C30022604506D36423B0FBF3F36360D3
:103BE000C4E902120AE0B04205D3B0FBF8F1E2608A
:103BF000C4E9011502E0E260C4E90103A0612146C5
:103C00004846BDE8F0471C2207F023B8808800B280
:103C10007047F0B4D1E902376425E24A0A264FF42E
:103C20007A7437B1062B4BD2DFE803F01D25462A04
:103C3000363D052B40D2DFE803F0033F0C101400A3
:103C40004B68934202D94A60002200E001220A61D7
:103C500032E04A68B2FBF4F22DE04A68B2FBF5F2BA
:103C600029E04A6809E04B68934224D84FF47A72FD
:103C700053434B6020E04A68F2B1B2FBF6F21AE01F
:103C80004B6842F21072934201D81A4600E04A6033
:103C900002EB820252000EE04A68A24200D94C6058
:103CA00064234A6806E04A68642A00D94D604A687D
:103CB0004FF47A735A434A60F0BC1C2206F0C9BF25
:103CC000B74AF8E72DE9F04781460C46486842F2CA
:103CD0000F714FF00A08884204D9B0FBF8F0606019
:103CE0000420A06066684FF47A704643A068C0F173
:103CF00004000AF095F802460B460020AA4909F094
:103D00008BF807460D4630460AF08AF83A462B46AD
:103D100009F0AEFE0AF040F84EF6602142F2107251
:103D2000884201D9084601E0904205D90221A160EC
:103D3000B0FBF8F1616002E00321C4E90101A06178
:103D400021464846BDE8F0471C2206F082BF70B508
:103D500005460020C8600C4688680AF03DFD0AF060
:103D6000BFFB02460B4600208F4909F055F80AF0C8
:103D700013F86168B1FBF0F0642801D90220A0605B
:103D800021462846BDE870401C2206F062BF08B5F7
:103D900086480090372328225C213C20FDF736F826
:103DA00083480090372328225C216420FDF72EF8F9
:103DB000804800903723282293213C20FDF726F8E5
:103DC0007D4800903723282293216420FDF71EF8B8
:103DD00008BD08B575480090372328225C213C2097
:103DE000FDF714F872480090372328225C216420E4
:103DF000FDF70CF8714800903723282293213C20CE
:103E0000FDF704F86C4800903723282293216420A2
:103E1000FCF7FCFF08BD08B5644800903723282252
:103E20005C213C20FCF7F2FF6148009037232822F8
:103E30005C216420FCF7EAFF6148009037232822C8
:103E400093213C20FCF7E2FF5B48009037232822B7
:103E500093216420FCF7DAFF08BD38B55348009081
:103E6000372328225C213C20FCF7D0FF504C37231D
:103E700028225C2164200094FCF7C8FF5148009080
:103E80003723282293213C20FCF7C0FF3723282228
:103E9000932164200094FCF7B9FF38BD38B543483E
:103EA0000090372328225C213C20FCF7AFFF464CD2
:103EB000372328225C2164200094FCF7A7FF4148A7
:103EC00000903723282293213C20FCF79FFF3723C3
:103ED0002822932164200094FCF798FF38BD08B590
:103EE00032480090372328225C213C20FCF78EFFCB
:103EF00035480090372328225C216420FCF786FF98
:103F00002C4800903723282293213C20FCF77EFF89
:103F1000294800903723282293216420FCF776FF5C
:103F200008BD08B521480090372328225C213C2099
:103F3000FCF76CFF24480090372328225C21642082
:103F4000FCF764FF1D4800903723282293213C2072
:103F5000FCF75CFF18480090372328229321642047
:103F6000FCF754FF08BD08B51848009037232822F5
:103F70005C213C20FCF74AFF0D48009037232822A3
:103F80005C216420FCF742FF0C4800903723282274
:103F900093213C20FCF73AFF074819E080969800EF
:103FA00040420F00A0860100000024408032010042
:103FB00098330100484A0100525901005B4B01004F
:103FC000224801000F470100D6430100C34201000F
:103FD00000903723282293216420FCF717FF08BDA7
:103FE00038B5F7480090372328225C213C20FCF7A5
:103FF0000DFFF44C372328225C2164200094FCF749
:1040000005FFF14800903723282293213C20FCF73C
:10401000FDFE37232822932164200094FCF7F6FE4E
:1040200038BD08B5E6480090372328225C213C20A3
:10403000FCF7ECFEE3480090372328225C21642043
:10404000FCF7E4FEE04800903723282293213C202F
:10405000FCF7DCFEDD480090372328229321642002
:10406000FCF7D4FE08BD08B5D548009037232822B8
:104070005C213C20FCF7CAFED2480090372328225E
:104080005C216420FCF7C2FED1480090372328222F
:1040900093213C20FCF7BAFECE480090372328221B
:1040A00093216420FCF7B2FE08BD08B5C448009017
:1040B000372328225C213C20FCF7A8FEC148009051
:1040C000372328225C216420FCF7A0FEC248009020
:1040D0003723282293213C20FCF798FEBD4800900E
:1040E0003723282293216420FCF790FE08BD08B5F1
:1040F000B3480090372328225C213C20FCF786FE41
:10410000B6480090372328225C216420FCF77EFE0D
:10411000AF4800903723282293213C20FCF776FEFD
:10412000AC4800903723282293216420FCF76EFED0
:1041300008BD08B5A2480090372328225C213C2006
:10414000FCF764FEA5480090372328225C216420F8
:10415000FCF75CFEA24800903723282293213C20E4
:10416000FCF754FE9B4800903723282293216420BB
:10417000FCF74CFE08BD38B5914800903723282243
:104180005C213C20FCF742FE944C372328225C2122
:1041900064200094FCF73AFE8B48009037232822D5
:1041A00093213C20FCF732FE372328229321642000
:1041B0000094FCF72BFE38BD08B5814800903723EA
:1041C00028225C213C20FCF721FE84480090372304
:1041D00028225C216420FCF719FE7B4800903723DD
:1041E000282293213C20FCF711FE784800903723C9
:1041F000282293216420FCF709FE08BD38B57948D0
:104200000090372328225C213C20FCF7FFFD714CF5
:10421000372328225C2164200094FCF7F7FD6B48CB
:1042200000903723282293213C20FCF7EFFD372311
:104230002822932164200094FCF7E8FD38BD38B5AE
:1042400068480090372328225C213C20FCF7DEFDE3
:10425000604C372328225C2164200094FCF7D6FDB3
:10426000A4F6D13000903723282293213C20FCF77C
:10427000CDFD37232822932164200094FCF7C6FD4E
:1042800038BD38B558480090372328225C213C209F
:10429000FCF7BCFD4F4C372328225C21642000949E
:1042A000FCF7B4FD494800903723282293213C2095
:1042B000FCF7ACFD37232822932164200094FCF7FF
:1042C000A5FD38BD38B548480090372328225C2129
:1042D0003C20FCF79BFD3F4C372328225C216420C7
:1042E0000094FCF793FDA4F6D130009037232822E8
:1042F00093213C20FCF78AFD372328229321642058
:104300000094FCF783FD38BD10B5394937480024C7
:104310004860352004FB00F136A264205C31FCF7D4
:10432000D0FE641CE4B2032CF3D310BD38B5304981
:104330002E48372348602448009028225C213C20E6
:10434000FCF764FD2D484FF4967400903723282223
:104350005C212046FCF75AFD29484FF4AA750090CD
:10436000372328225C212846FCF750FD2548009081
:104370003723282291214B20FCF748FD224800904A
:104380003723282291212046FCF740FD1F4800904A
:104390003723282291212846FCF738FD1C4800903D
:1043A00037232822C6213C20FCF730FD1948009015
:1043B00037232822C6212846FCF728FD38BD0000F7
:1043C000C3420100983301000F4701006E4C010009
:1043D000484A01005259010022480100D643010019
:1043E0005B4B0100E9440100FC45010034346500E9
:1043F000100000102D2D2D2D2D000000A74F0100C5
:104400002C570100785B0100E0520100FD620100C1
:10441000C45F0100D760010008B5FE480090372353
:10442000282293213C20FCF7F1FCFB480090372325
:1044300028225C213C20FCF7E9FCF8480090372357
:1044400028225C216420FCF7E1FCF548009037232A
:10445000282293216420FCF7D9FC08BD08B5EE485A
:104460000090372328225C213C20FCF7CFFCED484C
:104470000090372328225C216420FCF7C7FCE54824
:1044800000903723282293213C20FCF7BFFCE4480E
:1044900000903723282293216420FCF7B7FC08BD45
:1044A00008B5E1480090372328225C213C20FCF726
:1044B000ADFCDE4800903723282293213C20FCF7F6
:1044C000A5FC08BD2DE9FF5F00201C4692464FF079
:1044D0000109987000F044FFFF28FBD1D4484FF049
:1044E000FF0B90F8B803A070D2480390C01D029053
:1044F000C01D019000E08FB3CF4DDFF840836FF017
:104500007F40C5E900080027FCF734FFC5F804B078
:104510002C23C02218215820CDF800B0FCF794FAC3
:10452000A078012300EBC001C5480A181A215820C1
:10453000FCF7FDFDC5F8048000254FF0540800BFCE
:1045400005EB850108EB01100AEBC5020023F12100
:10455000FCF7EDFD6D1CEDB2052DF1D300F000FF71
:10456000FF2803D0761C032E02D03BE0002639E062
:104570000127132852D00CDC0B284FD004DC012873
:1045800038D009282ED111E00C2845D0112829D186
:104590001AE01A2829D004DC14283AD0192821D18D
:1045A00025E01B282FD01F281CD12EE0A148E17840
:1045B000C01F405CFF2802D0A0704FF000099C484B
:1045C000A178C0F8B8130BE0E178039814E098489C
:1045D000A178C0F8B813E1780198085CFF2801D0F1
:1045E00084F802B0B9F1000F85D1BDE8FF9FE178F2
:1045F000029801E0E1780198085CFF28E7D0A070FC
:104600004FF00009E3E7062100E005218D48016035
:10461000EBE70A202070E8E70220FBE70020F9E73B
:104620002DE9F0410F460446874A5C218220FCF7C1
:1046300048FD814D6FF07F46022C12D0032C10D024
:10464000042C0ED02E60384603F0BCFA7E4A91212D
:104650008220FCF736FD4FF05010C5E90060BDE840
:10466000F081FF202860EEE730B50C4677A185B0D9
:10467000D1E90021CDE9012176A2784DD2E90012DD
:10468000CDE9031201A93723085C40F21311484316
:104690002844009028225C214FF4BE70FCF7B6FB42
:1046A00003A840F21311005D372300FB0150009076
:1046B00028225C214FF4D270FCF7A8FB05B030BD76
:1046C00030B50C4661A185B0D1E90021CDE90121C9
:1046D00060A2624DD2E90012CDE9031201A937238D
:1046E000085C40F21311484328440090282293218B
:1046F0004FF4BE70FCF78AFB03A840F21311005D73
:10470000372300FB01500090282293214FF4D270F0
:10471000FCF77CFBD2E70EB5514A07CA8DE80700CB
:104720005048694690F840008DF80200BF208DF88F
:1047300003004D4804F0D9F80EBDF0B599B0012042
:1047400000F0E2FC484CAA21204604F0BBF801200E
:1047500000F0DAFCF121204604F0B4F8012000F06A
:10476000D3FC4248017801EB810100EB81020A2170
:1047700090788DF800009588B5FBF1F001FB1050A2
:104780008DF80100B5FBF1F0B0FBF1F301FB130074
:104790008DF802006420B5FBF0F3B3FBF1F601FBEA
:1047A00016338DF803304FF47A73B5FBF3F5B5FB90
:1047B000F1F601FB16558DF80450D588B5FBF1F6DE
:1047C00001FB16568DF80560B5FBF1F6B6FBF1F767
:1047D00001FB17668DF80660B5FBF0F6B6FBF1F746
:1047E000B5FBF3F501FB17668DF80760B5FBF1F635
:1047F00001FB16558DF80850157A8DF80950957AF9
:104800008DF80A50157B8DF80B50957B8DF80C5068
:10481000158A2DE05B4B01000F470100D6430100D4
:104820005259010098330100224801003549010026
:104830008C020010F96801001000001038003100EF
:1048400062670100940000104C4300100C0F10111F
:10485000160E0D00121314020B171600B0410100C2
:104860006C7201009C01001000C000402401001087
:10487000B5FBF1F601FB16568DF80D60B5FBF1F6B0
:10488000B6FBF1F701FB17668DF80E60B5FBF0F68D
:10489000B6FBF1F7B5FBF3F501FB17668DF80F607A
:1048A000B5FBF1F601FB16558DF81050558AB5FB96
:1048B000F1F601FB16568DF81160B5FBF1F6B6FB6B
:1048C000F1F7B5FBF0F001FB17668DF81260B0FB55
:1048D000F1F601FB16008DF81300B5FBF3F0B0FB09
:1048E000F1F301FB13008DF81400107D8DF8150015
:1048F00000256E462046715D03F0E4FF012000F0C4
:1049000003FC6D1CEDB2162DF4D3012000F0FCFB6E
:10491000BF21204603F0D6FF642000F0F5FB19B05C
:10492000F0BD70B586B014216D4601A806F0C3F93C
:10493000F848F94E002400680090295D304603F0E5
:10494000C1FF641CE4B2032CF7D306B070BD70B590
:1049500086B014216D4601A806F0ADF9ED48EE4E83
:10496000002440680090295D304603F0ABFF012031
:1049700000F0CAFB641CE4B2032CF4D3E5E770B585
:1049800086B014216D4601A806F095F9E148E24E83
:10499000002480680090295D304603F093FF0120D9
:1049A00000F0B2FB641CE4B2032CF4D3CDE7FEB5F7
:1049B000DA4B0ECB8DE80E00002304221946FCF7DB
:1049C00055FCD74900206D460A5C2B18401CC0B22C
:1049D0005A710428F8D3D04E00243046295D03F0E4
:1049E00071FF012000F090FB641CE4B20A2CF4D3A8
:1049F000C82000F089FBFEBDFEB5C84BC64E0C3387
:104A000000240ECB8DE80E008DF801006D46304677
:104A1000295D03F057FF012000F076FB641CE4B22F
:104A2000032CF4D3642000F06FFBFEBDFEB5BB4B3E
:104A3000B94E183300240ECB8DE80E008DF802001D
:104A40006D463046295D03F03DFF012000F05CFB20
:104A5000641CE4B2042CF4D3642000F055FBFEBDCA
:104A600000B585B00020AB490190029003900490FE
:104A7000C968009110218DF801100D218DF80210E8
:104A8000A84909788DF80310BF218DF80A108DF818
:104A900004008DF80B0069469F4803F026FF05B01F
:104AA00000BD10B50C469D4900EB4000AE394218E0
:104AB0000123C8218020FCF73AFB04EB440097490E
:104AC000012381394218C821BDE810408820FCF735
:104AD0002EBB10B50C46914900EB4000AE39421890
:104AE0000023C8214FF4C270FCF721FB04EB440003
:104AF0008A49002381394218BDE81040C8214FF48B
:104B0000C670FCF714BB30B58DB0182286A168467C
:104B100006F09FF818228AA106A806F09AF88E4996
:104B20004FF05010012348608C4AC8213420FCF714
:104B3000FEFA8A4A01230A32C8214FF49C70FCF71E
:104B4000F6FA874C854DD4F8B803713D1DF8001076
:104B500015F89D0FFFF7A5FFD4F8B80306A9095C67
:104B60006878FFF7B6FF0DB030BD2DE9F0477D4FF7
:104B7000794D7D4E00244FF050184FF4C379A01E9C
:104B8000052801D3082C01D96F6001E0C5F8048025
:104B9000002356F8240006221946FCF767FBC4EBF5
:104BA000041101235E4A48463A31FCF715FB641CA8
:104BB000E4B20B2CE3D3BDE8F08789B280B20123C5
:104BC0006AA2FCF7B4BA89B280B2012368A2FCF7EA
:104BD000AEBA08B5762000230090664A0121184637
:104BE00004F032FC08BD08B5762000230090614A2D
:104BF0000121184604F09FFC08BDF0B55D4C474A02
:104C0000A41C00216E3A02F1280601EB810300206A
:104C100004EB830302EB800733F810507F88BD421A
:104C200003D832F82070BD4203D236F8105023F872
:104C30001050401C80B20A28ECD3491C89B20529C7
:104C4000E3D34C49354A66310020323A02EB400446
:104C50000B5C6478A34202D912F810300B54401C4C
:104C600080B20628F2D3F0BD3B4902004FF050104D
:104C7000486041494FF4A970097801EB810303EBC7
:104C8000C10101D03D4A01E03C4A343A0A440023C4
:104C90001A21FCF74CBA38B52F4C32490128256847
:104CA00061600ED002280FD0354820603548009052
:104CB00018233022DD214FF4CA70FCF7A7F82560D5
:104CC00038BD4FF47F40F0E7FF20EEE72DE9FF5FAE
:104CD0002D4983460024B1F800A04888039001269E
:104CE000BBF804900420274655460A22B9FBF2FC83
:104CF00002FB1C9CB9FBF2F901AB03EB4003401E25
:104D000023F802CC10F0FF00F0D17F1CBFB206B92F
:104D10006CE03DE0A064010000C00040787201003A
:104D20004C43001070000010000000000000000163
:104D3000010101010101010202030302020200005C
:104D4000060603020606020602020606060202051F
:104D5000040504020606000010000010C141001006
:104D60008C020010343465001C4300105600000013
:104D70006D41000024010010FC410010876B010010
:104D80003800310010640100980000107F1CBFB291
:104D9000DFF8B081A8F800500398A8F80200BDF829
:104DA0000810BDF80A0001EB810100EB4102BDF8DB
:104DB000060064214843BDF8041001EB4103C3EB36
:104DC000C11100EBC10010441FFA80F99BF80610D6
:104DD000012304224846FCF749FAB8F80210B8F853
:104DE00000000123584AFCF7A2F90AE05549FF22C6
:104DF0001346A1F800A00092504649882022FBF7F4
:104E0000BBFE052F04D90EB1002600E001260027C5
:104E1000142000F079F900F0A3FA8046FF2817D09B
:104E20004A480168491C016005297FF46EAF00F013
:104E3000B2FAA8F10A000D28BFF467AFDFE800F06E
:104E400031251A07070707070C3F4C070C005CE7E2
:104E50003E490020086058E73D4800680A2805D10F
:104E6000F520FFF7C9FD642000F04EF9002004B0E2
:104E7000BDE8F09F01A8012630F8141009B1491EC1
:104E800000E0092120F8141080E701A9012631F87B
:104E90001400092801D2401C00E0002021F8140071
:104EA00074E7BBF80800484500D28146BBF80A0009
:104EB000484500D98146ABF804900120D7E704EBC0
:104EC0008401012605EB410105F11E00814201D25A
:104ED000641C09E000240AE004EB8401012605EBD0
:104EE0004101A94202D9641EE4B200E0032419483A
:104EF0002A198179184800EB8101501B085C00EBEE
:104F0000800105EB41001FFA80FAFEE670B5134CF4
:104F10001349C0EBC00065686160124900EB4000B6
:104F200001EB40001049002391F86A10C1EBC10168
:104F300001EB41014218FF210A20FCF7F8F86560F7
:104F400070BD0000980000104C430010700000106D
:104F500094000010584300105A7201001000001015
:104F6000F35203000E65010024010010FA48416865
:104F7000491C416070474FF48051002003F021B874
:104F80004FF48051002003F024B810B54FF4806135
:104F9000022003F016F8BDE810404FF48001002015
:104FA00003F00FB810B54FF48061022003F011F840
:104FB000BDE810404FF48001002003F00AB84FF420
:104FC0008041012002F0FDBF4FF48041012003F039
:104FD00000B80121084602F0F4BF0121084602F0A2
:104FE000F8BF4FF40071012002F0F3BF4FF40071DD
:104FF000012002F0E6BF10B54FF08061022002F000
:10500000E0FF0121084602F0E4FF4FF4006421466E
:10501000022002F0DEFF2146BDE81040002002F031
:10502000D0BF10B50121084602F0D3FF4FF08061D8
:10503000022002F0CEFF4FF48041012002F0C9FFB0
:105040004FF400642146022002F0C3FF21460020F5
:1050500002F0BFFF6110BDE81040022002F0B9BFAE
:105060000221084602F0B5BF10B50121084602F042
:10507000B0FF4FF08061022002F0ABFF4FF40071EF
:10508000012002F0A6FF4FF48041012002F0A1FFB1
:105090004FF40061002002F09CFFBDE81040DFE704
:1050A00010B50121084602F08CFF4FF0806102200C
:1050B00002F08FFF4FF400642146002002F089FFC8
:1050C0002146BDE81040022002F07BBF10B54FF42E
:1050D0008061002002F075FFBDE810404FF0806154
:1050E000022002F076BF10B54FF08061022002F07E
:1050F00068FFBDE810404FF48061002002F069BFF6
:105100000221084602F05DBF934A516853685B1A5A
:105110008342FBD3704710B500224FF48011104634
:1051200002F041FF00224FF40011104602F03BFF55
:1051300001229102022002F036FF0122D402214610
:10514000022002F030FF01229105002002F02BFF27
:1051500021460122BDE81040002002F024BF10B516
:1051600001229102002002F01EFF0122910602207E
:1051700002F019FF01221021052002F014FF012284
:105180000421104602F00FFF01221146104602F0E2
:105190000AFF01229103104602F005FF01221103CC
:1051A000002002F000FF01220221BDE81040084665
:1051B00002F0F9BE10B5012254022146104602F059
:1051C000F2FE01229102104602F0EDFE01220221C0
:1051D000104602F0E8FE0022A103104602F0E3FEB2
:1051E0000022E103104602F0DEFE002221041046F8
:1051F00002F0D9FE00226104104602F0D4FE002223
:10520000A102104602F0CFFE0022A101012002F00F
:10521000CAFE2146BDE81040012002F0D2BE0020A7
:10522000401EC0B20A28FBD3704770B50446022165
:10523000012002F0CEFE00254FF4806620063146A4
:105240004FF0010002D502F0BCFE01E002F0C1FE09
:105250000221012002F0B5FEFFF7E1FF022101204B
:1052600002F0B7FE60066D1C040EEDB2082DE5D30A
:1052700070BD10B5FFF79EFFBDE81040FF20D4E7DA
:105280002DE9F041FF2425460020FFF7CEFF002046
:1052900002F0AAFE000201D4002613E0002002F072
:1052A000A3FEC00101D401260CE0002002F09CFE08
:1052B000800101D4022605E0002002F095FE4001A5
:1052C0000DD40326254F0024385DFFF7AEFF96B1BD
:1052D000012E15D0022E18D0032E24D11AE04FF43F
:1052E0000041012002F06DFE012002F07DFE00046D
:1052F00021D40F242CE0002002F076FE00020DE005
:10530000002002F071FEC00108E0002002F06CFEF7
:10531000800103E0002002F067FE4001002802DB6C
:105320002546FF2C03D1641CE4B2082CCCD305EB3A
:10533000C600C4B20CE0002002F056FEC00201D448
:10534000162405E0002002F04FFE800200D417244E
:105350002046BDE8F0810000340000109A72010080
:1053600010B5FFF78DFF104CFF28207009D00A20E0
:10537000FFF7CAFEFFF784FF60702178884201D1F1
:10538000084610BDFF2010BD2DE91040FFF7E8FFD3
:10539000FF28FBD110BD10B5FFF7EDFD1420FFF77E
:1053A000B3FEBDE81040EBE53400001070B50D46CB
:1053B00006460221F8A004F01DFB041EF9480BDD8F
:1053C000012101702A463146204604F0C8FC2046DF
:1053D000BDE8704004F049BD0021017070BD10B5FA
:1053E000F14800240470FFF744FFFFF7B8FE03F014
:1053F00088FCFBF70DF80020FBF72EFAEB480021A4
:105400004069FBF752FA0120FBF726FAE848FBF760
:105410007FFFFFF7A4FEFFF77EFEFFF7ACFD002045
:10542000FFF703FFFFF7D0FDFFF7D7FDFFF7E3FD21
:10543000FAF716FFDF48047003F0D4FFFFF7D3FB41
:10544000DD4890F8670003F0EEFCFFF7D6FB14216F
:105450000020FBF7A4F90020FBF766F904F05EFDDD
:1054600004F034FF10F0FF0F0DD1D44AD449D548D1
:1054700005F02FF910F0FF0F05D104F007F92321F3
:10548000D1A0FFF793FF4FF47A742046FFF73CFE5C
:10549000FFF747FA2046FFF737FEFFF761FFD34CCF
:1054A0000A2800D12060FFF76BFD2068022801D197
:1054B0001120206010BD2DE9FC5F00278DF80170E0
:1054C0008DF800704FF0FF0901253C468DF80290E1
:1054D0004FF05010FBF7AFFAFCF731FAFFF7A1FDE0
:1054E000FFF752FFC24900200860FFF726F9FFF7D7
:1054F00047FD0020FFF70AFDFEF718FFDFF8F4B2C2
:10550000DFF8F4A2B94E3CE1A748017829B1047054
:10551000FFF713F9FFF75DFB01E0012D03D16846AA
:10552000FDF760F90025B549CAF80410B449002018
:105530000C54401CC0B20628FAD300205A46131857
:10554000DB790B54401CC0B20528F8D39178AD4AE2
:10555000D84611709BF80100F22806D0FEF7D4FE61
:1055600098F8011005290AD00FE0A54A5C216420B3
:10557000FBF7A7FD0020FFF777FB092003E088F881
:10558000014001250020FFF7C1FCFFF7E9FE80463E
:10559000FF2803D07F1C032F02D0EEE00027ECE0B1
:1055A000FFF7F9FE4046B8F1130F74D00ADCA8F1FA
:1055B0000A000928F1D2DFE800F016B0A4BE95E099
:1055C000E0E05400172867D007DC14284FD01528D6
:1055D00024D0B8F1160F20D1A5E01F2876D0B8F15D
:1055E0003C0F1AD1A4E0744890F86800002814D049
:1055F00004F094FC04F06AFE10F0FF0F0DD16F4A26
:105600006F49704805F065F810F0FF0F05D104F000
:105610003DF823216CA0FFF7C9FEAEE09DF8000025
:10562000012505281AD005208DF800006248017870
:1056300001EB810100EB81009DF8001000EB4100BF
:10564000801F0190028870488280704A02EB8101BD
:1056500031F8062C028131F8081C8CE08DF80040EE
:10566000E4E701258DF80040FFF789F985E09DF812
:105670000000012506280DD2DFE800F003053E11E9
:105680007F40102052E04C48017831B1491E017032
:10569000FFF753F871E01AE047E00421F7E75C48B0
:1056A00058210180462102E0594801803021418083
:1056B000DFF85481CAF80490404688F80640FFF7A6
:1056C00005FB0198B8F804100180E1E70AE09DF8B5
:1056D00000000125062850D2DFE800F004060E0382
:1056E0004F10DCE7052021E033480178042901D37D
:1056F0000470CDE7491CCAE75821D5E74FF4AE71D5
:10570000D2E79DF80000012518B100BF8DF80040D8
:1057100033E001208DF800002FE09DF80000012506
:105720000028F6D0F2E7112000E00620306024E0E7
:10573000FFF7D9FC21E09DF80000012502286AD07E
:1057400003286AD05FF002008DF800001A48017843
:1057500001EB810100EB81009DF8001000EB41009E
:105760000C300190028828488280284A02EB81018F
:10577000CA8B0281898B418184710A480078FFF7C6
:105780008AFA306811283FF4BFAE062801D1FFF72E
:10579000DEF8BDE8FC9F3EE04A4B353532302E54F2
:1057A00058540000840000108700001018000010FA
:1057B000A27201009000001024010010F8420010B5
:1057C000880000108C000010B5E7D1B920202020FF
:1057D00020CAB1BCE4202020202020B5E7D7E82053
:1057E0002020202020B7D6D1A10D0A00940000105F
:1057F00078000010084200101000001034346500DA
:105800004C430010FC4100105843001040000010B1
:105810009800001001E0032096E78DF8004095E71E
:105820002DE9F0470025FFF7AFFDFF4900200627CF
:10583000FE4CDFF8FC93DFF8FC836FF07F4A0860D2
:1058400032E04646C8F8049003F034FBC6F800A0E6
:10585000FFF786FD0646FF2803D06D1C032D23D1DC
:1058600001E0002520E0FFF796FD132E1CDD172E2A
:1058700015D006DC142E17D0152E15D0162E13D1E8
:1058800008E01B2E04D01F2E0ED03C2E0CD109E0B8
:1058900027600CE0FFF745F81120206007E0FFF7D4
:1058A00056F8F5E7FFF71FFC20681228C9D0BDE8BD
:1058B000F047FFF736B82DE9F05F0025FFF764FDEC
:1058C000D9490020DFF870B3D84CDFF87093DFF8C7
:1058D0006083D84F6FF07F4A086035E099F8660022
:1058E00040B19BF80010012904D100218BF8001071
:1058F00003F09CFCC7E900A8FFF732FD0646FF282D
:1059000003D06D1C032D1FD101E000251CE0FFF723
:1059100042FD132E18DD172E11D006DC142E13D0E5
:10592000152E11D0162E0FD106E01B2E0CD01F2ED7
:105930000AD03C2E08D105E0112020600FE006209F
:10594000206009E0FFF7CFFB20681328C6D00628A7
:1059500002D0112803D004E0FEF7F9FF01E0FEF7C2
:10596000E0FFBDE8F05FFFF75CBBF0B5B448AB21EA
:105970000A230170AF21C175B0492E250A7802EBC8
:10598000820201EB82013022898864290CD2B1FBAA
:10599000F3F430344470B1FBF3F403FB14113031F1
:1059A0008170C570027116E0B1F57A7F15D2642658
:1059B000B1FBF6F430344470B1FBF6F406FB14147A
:1059C000B4FBF3F430348470B1FBF3F403FB141133
:1059D0003031C1700571427105E09AA10968C0F8C3
:1059E0000110002141719A49DFF860E28B689EF84E
:1059F000004091F80CC08CB10E46012CD6F809700D
:105A000006D0944E022C366805D0032C0BD018E03B
:105A1000C0F8067010E0904CA642F9DBC0F80630E2
:105A200080F80AC00DE08D4CA64207DAB1F80930C3
:105A3000C380CB7A03724572827202E0C0F80630EE
:105A400085728279B0235E2A06D0562A0DD09EF840
:105A50000A20942A09D00FE00022D0248518521C75
:105A6000D2B2AC71052AF9D306E000228418521C88
:105A7000D2B2A371052AF9D3B1F80D204282CA7BB4
:105A800002754A7C42754D22C27275224274002210
:105A90008418257B2D2D00D12373521CD2B2052AE8
:105AA000F6D3897C8175912901D992218175F0BD48
:105AB0002DE9F04F89B00020049001200690644A3F
:105AC000002001461154401CC0B21428FAD300240F
:105AD0008DF815408DF81440FF208DF816004FF01A
