:020000040000FA
:10000000404D0010B9A00000C1A00000C3A0000036
:10001000C5A00000C7A00000C9A0000000000000AB
:10002000000000000000000000000000CBA0000065
:10003000CDA0000000000000CFA000003160000053
:10004000D3A00000DD070000F10700000308000056
:1000500015080000B9B90000D3A00000D3A000002B
:1000600051BF0000D3A00000D3A00000D3A0000027
:10007000D3A00000D3A00000D3A00000D3A00000B4
:10008000D3A00000D3A00000D3A00000D3A00000A4
:10009000D3A00000D3A00000D3A00000D3A0000094
:1000A0001DD20000D3A00000D3A00000D3A0000008
:1000B000D3A00000D3A00000D3A00000D3A0000074
:1000C000D3A00000D3A00000D3A00000D3A0000064
:1000D000D3A00000D3A00000D3A00000D3A0000054
:1000E000D3A0000000F002F800F0B0F80AA090E8F9
:1000F000000C82448344AAF10107DA4501D100F0E3
:10010000A5F8AFF2090EBAE80F0013F0010F18BFFF
:10011000FB1A43F001031847B8AE0700D8AE07003A
:100120000A444FF0000C10F8013B13F0070408BF1D
:1001300010F8014B1D1108BF10F8015B641E05D0BB
:1001400010F8016B641E01F8016BF9D113F0080F70
:100150001EBF10F8014BAD1C0C1B09D16D1E58BF02
:1001600001F801CBFAD505E014F8016B01F8016B39
:100170006D1EF9D59142D6D37047000000230024AC
:1001800000250026103A28BF78C1FBD8520728BFA7
:1001900030C148BF0B6070476E290EF06D8070292A
:1001A0000EF0BF83662911F08187652911F07E87E3
:1001B000672911F07B876129AFF3008003681B0A70
:1001C00028BF41F0800169290EF01A8064290EF0E1
:1001D000178075290EF014806F290EF04C83782952
:1001E0000EF08B83E9290EF0E782E4290EF0E48219
:1001F000F5290EF0E182EF290EF04983F8290EF07F
:100200008A830368DB0928BF41F0800163290EF06F
:10021000DF8473290EF0E484E3290EF0EF84F329E0
:100220000EF0F484002070471FB50EF0D7FB0400D9
:100230000020002110F0C4FD401C6060002000215F
:1002400010F0A8FDE0601FBD10B510BD0EF098FDC8
:100250001146FFF7E9FF00F097F90FF03BF803B400
:10026000FFF7F2FF03BC0FF07FF8000070B5054602
:100270000C46A4F120000B4A02EB00111022284684
:100280000DF0D6FE70BDA1F1200202EB4202064B3A
:1002900003EB8202136803605368436092688260D4
:1002A000704700004C5D01003C6301000A48762164
:1002B00002E000220270401C0A1EA1F1010399B263
:1002C000F7D1054A1278052A02DB0022024B1A7088
:1002D0000022024B1A707047400100108A00001083
:1002E000421E12F8013F002BFBD111F8013B002BFD
:1002F00002F8013BF9D1704770470000FFFFFFFF94
:1003000040F20120974908609749C1F88401954956
:1003100008310860091D0860091D0860091D086092
:10032000091D0860091D0860091D0860091D086095
:10033000091D0860091D0860091D0860091D086085
:10034000091D0860091D0860091D0860091D086075
:10035000091D0860091D0860091D0860091D086065
:10036000091D0860091D0860091D0860091D086055
:10037000091D0860091D0860091D0860091D086045
:10038000091D0860091D0860091D0860091D086035
:10039000091D0860091D0860091D0860091D086025
:1003A000091D0860091D0860091D0860091D086015
:1003B000091D0860091D0860091D0860091D086005
:1003C000091D0860091D0860091D0860091D0860F5
:1003D000091D0860091D0860091D0860091D0860E5
:1003E000091D0860091D08605E49E43108605D4927
:1003F00040390860091D0860091D086059493039F5
:100400000860584920390860564910390860091DAC
:100410000860091D08605449C1F87C0170472DE946
:10042000F04100BF00BF5148006840F400604F49F0
:10043000C439C1F8C40041F61F704D49086001205D
:100440004C49086000208860FFF75AFF4A4800685E
:100450004A49B0FBF1F74548C438D0F8000100B173
:100460007F084FF47A70B0FBF7F404F11300B0FB8F
:10047000F4F0404908630F2048630020886301209E
:10048000C86304F11300B0FBF4F0801C0864012081
:10049000486404F13E00B0FBF4F0886404F13E00CF
:1004A000B0FBF4F0C8640F20086504F13E00B0FB17
:1004B000F4F0486501208865886240F203303049D5
:1004C00008604FF48D402B49C1F800012C49091FE9
:1004D00008606421002000F003F940F283102549F0
:1004E0000862C821002000F0FBF840F20310214907
:1004F000086202204862002600E0761C802EFCD3B1
:1005000041F68465A5F1100085B22D1105FB07F0B9
:100510004FF47A71B0FBF1F085B216484562832042
:10052000144908621748D0F8008000200862144877
:10053000001F006840F40020C1F8000101210020E4
:1005400000F0CEF80121002000F0CAF80848006849
:1005500020F01F0848F011000449C439C1F8DC013B
:10056000BDE8F08180C1024000C00240C4C00F401D
:10057000DCC10F4000C00920B400001040420F0051
:1005800004C10920004006A000200AF0C0F904467A
:100590000020474908604FF47A70B4FBF0F0411E28
:1005A000B1F1807F00D31DE021F07F40401E4FF06D
:1005B000E022506150171F22002807DAD3061E0ED2
:1005C0003C4B00F00F052D1F5E5503E0D3061D0EBA
:1005D000394B1D5400BF00204FF0E02290610720EE
:1005E000106100BF05F0BEFE0220344908602CE017
:1005F00032480068801E122825D2DFE800F0092466
:10060000240F0C242424122415242424181B1E2116
:1006100005F086FF18E006F04BFB15E006F0DCFE67
:1006200012E009F0A9F80FE008F072FF0CE008F002
:10063000D9FE09E005F0E3FF06E006F05FFA03E00B
:1006400006F0C1FA00E000BF00BFD1E72DE9F0419C
:1006500001211BA00CF0ACF90746002F25DD4FF45B
:100660007A621A48016838460CF082FA022118A012
:100670000CF09EF90446002C11DD002500BF4FF45C
:100680007A621248016820460CF0DCFB06463544CD
:1006900012488542F3D320460CF06BFC01E0BDE824
:1006A000F08138460CF065FC00E0F8E700BFF6E7A3
:1006B0008400001018ED00E000E400E0A00000104D
:1006C0004D53524541442E545854000030010010FF
:1006D0004A4B353532302E545854000080969800DD
:1006E000F8B902224FF040235A600022DA60B04A83
:1006F00012684FF47A73B2FBF3F2521E4A434FF082
:1007000040239A61FF221A6004225A6101225A6032
:1007100000BF4FF04022526802F00102002AF8D1D7
:100720005BE001281CD10222A24B5A600022DA6051
:100730009F4A12684FF47A73B2FBF3F2521E4A4397
:100740009C4B9A61FF221A6004225A6101225A606E
:1007500000BF984A526802F00102002AF9D13CE039
:1007600002281CD10222944B5A600022DA60904A7F
:1007700012684FF47A73B2FBF3F2521E4A438E4B67
:100780009A61FF221A6004225A6101225A6000BF56
:10079000894A526802F00102002AF9D11DE00328BB
:1007A0001BD10222854B5A600022DA60804A12680F
:1007B0004FF47A73B2FBF3F2521E4A437F4B9A61B5
:1007C000FF221A6004225A6101225A6000BF7B4A4C
:1007D000526802F00102002AF9D1704701204FF05F
:1007E0004021086076480068401C754908607047E1
:1007F00001207049086073480068401C7149086016
:10080000704701206C4908606F480068401C6E49C1
:10081000086070470120694908606C480068401C06
:100820006A490860704720B901214FF040225160A9
:1008300010E0012803D101215E4A51600AE002283C
:1008400003D101215C4A516004E0032802D1012157
:100850005A4A5160704720B900214FF04022516040
:1008600010E0012803D10021524A51600AE0022819
:1008700003D10021504A516004E0032802D1002135
:100880004D4A51607047014631B94FF040225068DF
:1008900040F00200506016E0012905D1454A506839
:1008A00040F0020050600EE0022905D1424A506833
:1008B00040F00200506006E0032904D13F4A50682E
:1008C00040F002005060704770B505460C46F5B91F
:1008D00000203B4908603E48006840F002003C4967
:1008E000C439C1F8C4004FF04020406840F0020015
:1008F0004FF0402148604EF65F20C8600846846192
:1009000003204861012000F048F8012070BD012D4E
:1009100014D100202B4908602D48006840F00400E5
:100920002B49C439C1F8C4002248846103202149FD
:100930004861022000F031F80120E7E7022D13D1D1
:100940000020214908602248006840F480002049C6
:10095000C439C1F8C40018488461032016494861AD
:1009600000F01BF80120D1E7032D14D10020174916
:1009700008601748006840F400001549C439C1F800
:10098000C4000E48846103200C494861042000F033
:1009900004F80120BAE70020B8E700F01F020121A7
:1009A00091404209920002F1E022C2F80011704722
:1009B000B8000010008000400000094000400940DD
:1009C0000000001004000010080000100C000010CF
:1009D000C4C00F4008B5B0B1F849896941F00101C0
:1009E000F64A916142F21071009108E0F349896979
:1009F00041F40061F14A91610099491E009100990A
:100A00000029F3D115E0ED49896921F40061EB4A31
:100A1000916142F21071009102E00099491E00912B
:100A200000990029F9D1E549896921F00101E34ADA
:100A3000916108BDE24A002102E008C808C2491CD1
:100A40008029FAD3704750B506460C4600BF2720D0
:100A5000DC4908614861DC490860DA49C1F8740280
:100A6000DA490860091D0860091D0860091D086051
:100A7000D4498861C861D54948390860091D0860B2
:100A8000091D0860091D0860091D0860091D08602E
:100A9000CC4908624862CD4918310860091D0860D8
:100AA000CA4930390860091D0860091D0860091D20
:100AB0000860C64910390860C449091F0860C34965
:100AC0000C390860091D0860BE49C1F80001C04822
:100AD000006C40F00200BE4908640846806D40F09A
:100AE0000A008865BB48D0F8C40040F00100B9494D
:100AF000C1F8C400B848006820F00100B649086099
:100B00000020AE4988610846806920F00E008861A7
:100B10000846806940F00A0088610846806940F014
:100B2000200088610846806920F0800088610846BE
:100B3000806920F4807088610846806920F4007024
:100B400088610846806920F4806088610846806971
:100B500020F400608861A1480068A149B0FBF1F071
:100B60009C49C1F8B8019548806840F0806093497D
:100B700088600846806820F0200088600846806809
:100B800040F4006088600846806840F480508860C7
:100B90000846806820F4005088600846806820F489
:100BA00080408860084680688E4908408349886094
:100BB000084680688C4908438049886000200860A6
:100BC0000846006840F01C5008600846006840F481
:100BD000802008600846006840F48070086008467D
:100BE000006840F0740008600020486008464068D3
:100BF00040F0006048600846406840F400204860CB
:100C00000846406840F4806048600846406840F20A
:100C10000F1108436949486074480861486114B17C
:100C20002046FFF707FF50BD704A002101E001C2D6
:100C3000491CB1F5FF3FFAD370472DE9F0411C463E
:100C4000069FC1EB011CDFF8A48108EBCC1C0CEB68
:100C5000800300260EE0002501E080C36D1CA2EB9E
:100C6000000CAC45F9D8A2EB000CCCF5F07C03EB02
:100C70008C03761CA4EB010CB445ECD8BDE8F081E4
:100C800030B55A4BB0F5F07F02DAB1F5887F00DB62
:100C900030BDC1EB011500EB451403EB84031A6072
:100CA00000BFF5E72DE9F04F04460D4691469A4600
:100CB000DDF824B04C4503DD0FFA89F7A146BCB23C
:100CC000554503DD0FFA8AF7AA46BDB2A9EB040029
:100CD0000FFA80F8AAEB050006B2B8F1000F0BD1AD
:100CE00000BF5A4629462046FFF7CAFF681C85B256
:100CF000AA45F6DABDE8F08F56B900BF5A46294634
:100D00002046FFF7BDFF601C84B2A145F6DAF1E78B
:100D1000B04521DDC8EB460007B215E05A4629462A
:100D20002046FFF7ADFF601C84B2002F08DD681C71
:100D300085B27000022101FB1800384407B203E0BD
:100D4000022000FB067007B24C45E7D15A462946FF
:100D50002046FFF795FF20E0C6EB480007B215E0FC
:100D60005A4629462046FFF78BFF681C85B2002FA4
:100D700008DD601C84B27000022101FB18003844B9
:100D800007B203E0022000FB067007B25545E7D129
:100D90005A4629462046FFF773FF00BFAAE72DE910
:100DA000FF5F06460F4690469946DDF838B041464B
:100DB0006846FFF75BFA002438E000000080082056
:100DC0000082082000C0024070C2024018C10240E8
:100DD0000080092000C00F40008C0820B8000010DF
:100DE0009C997400FFFF00FC0000DF01000001A0DF
:100DF0001DF804A0002516E0C5F107004AFA00F02E
:100E000000F0010038B13A1991B2721990B24A4615
:100E1000FFF736FF06E03A1991B2721990B25A46BE
:100E2000FFF72EFF6D1C082DE6D3641C102CDFD3BA
:100E3000BDE8FF9F2DE9FE4F06460F4690469946B6
:100E4000DDF830B041466846FFF71DFA002415E092
:100E50001DF804A000250EE0C5F107004AFA00F0D5
:100E600000F0010030B13A1991B2721990B24A46BD
:100E7000FFF706FF6D1C082DEED3641C0C2CE7D386
:100E8000BDE8FE8F2DE9F84305460E461446984608
:100E9000DDF8209000BF14F8017B43463A46314606
:100EA0002846CDF80090FFF77AFFB5F5EC7F03DA1E
:100EB00005F1080085B208E0FF2E04DC002506F1EC
:100EC000100086B201E00025002620780028E2D13B
:100ED000BDE8F8832DE9FF4F074688469B463C4610
:100EE0004546BA4646464FF0000915E0A4F1140104
:100EF00088B22946029AFFF7C3FE601C84B2A6F1AD
:100F0000140081B25046029AFFF7BAFE701C86B2F6
:100F100009F101001FFA80F9B9F1280FE6DB3C4620
:100F20004546BA4646464FF000092BE0A5F11402AB
:100F300091B2A4F1140290B25A46FFF7A1FE05F156
:100F4000140291B2A4F1140290B25A46FFF798FE2F
:100F5000601C84B2A6F1140291B2AAF1140290B2FC
:100F60005A46FFF78DFEA6F1140291B20AF114025F
:100F700090B25A46FFF784FE701C86B209F1010058
:100F80001FFA80F9B9F10A0FD0DB3C464546BA4654
:100F900046464FF000092BE0A5F1140291B204F18E
:100FA0000A0290B25A46FFF76BFE05F1140291B2A5
:100FB00004F10A0290B25A46FFF762FE601C84B246
:100FC00006F10A0291B2AAF1140290B25A46FFF752
:100FD00057FE06F10A0291B20AF1140290B25A4683
:100FE000FFF74EFE701C86B209F101001FFA80F96E
:100FF000B9F10A0FD0DBBDE8FF8F10B50246002122
:1010000012E001EB8110F84B185C1378984209D17B
:10101000507801EB8113F44C23445B78984201D162
:10102000084610BD481C81B27729EAD30020F8E7B2
:1010300010B50246002114E001EB0110EB4B13F850
:101040001000137898420AD1507801EB0113E74C55
:1010500004EB43035B78984201D1084610BD481C5D
:1010600081B2B329E8D30020F8E72DE9F04F044618
:101070000F4615469846A3464FF0000900262DE07E
:10108000099810F806904FF0000A21E009F080005E
:1010900030B1D748394602682046FFF7F1FD05E038
:1010A000D348394642682046FFF7EAFD4FEA4960D7
:1010B0004FEA1069601C84B2A4EB0B00A84203D174
:1010C0005C46781C87B206E00AF1010000F0FF0AD6
:1010D000BAF1080FDADB00BF701C86B205FB08F01E
:1010E000C11700EB5171B6EBE10FC9DBBDE8F08F22
:1010F0002DE9F04F0546894692469B46A8460026B4
:10110000BBF1000F32D100242DE00AEB0A10B749E1
:1011100001EB4000801C065D00271FE006F0800008
:1011200030B1B348494602682846FFF7A9FD05E0FB
:10113000AF48494642682846FFF7A2FD7006060EF2
:10114000681C85B2A5EB0800102805D1454609F1B9
:1011500001001FFA80F903E0781CC7B2082FDDDB1D
:1011600000BF601CC4B2202CCFDB31E000242DE096
:101170000AEB0A109D4901EB4000801C065D002728
:101180001FE006F0800030B1994849464268284681
:10119000FFF776FD05E09648494602682846FFF7C6
:1011A0006FFD7006060E681C85B2A5EB08001028BE
:1011B00005D1454609F101001FFA80F903E0781CCA
:1011C000C7B2082FDDDB00BF601CC4B2202CCFDB10
:1011D000BDE8F08F2DE9F04F0546894692469B46C3
:1011E000A8460026BBF1000F31D100242CE00AEB09
:1011F0008A107D490844801C065D00271FE006F028
:10120000800030B17A48494602682846FFF738FD29
:1012100005E07748494642682846FFF731FD7006E9
:10122000060E681C85B2A5EB0800182805D14546B6
:1012300009F101001FFA80F903E0781CC7B2082FFA
:10124000DDDB00BF601CC4B23F2CD0DB30E00024EB
:101250002CE00AEB8A1064490844801C065D0027D4
:101260001FE006F0800030B16148494642682846D8
:10127000FFF706FD05E05E48494602682846FFF78D
:10128000FFFC7006060E681C85B2A5EB0800182846
:1012900005D1454609F101001FFA80F903E0781CE9
:1012A000C7B2082FDDDB00BF601CC4B23F2CD0DB0F
:1012B000BDE8F08FF0B504460D4616461F463B4686
:1012C000224631462846FFF785FF1820F0BDF0B5CD
:1012D00004460D4616461F463B46224631462846E2
:1012E000FFF706FF1220F0BD2DE9F84306460D4634
:1012F00014461F464FF00008C14652E0207800B95E
:1013000050E006EB090086B2207880281ADD06F14D
:101310001800B0F5F07F07DD002605F1160085B254
:10132000B5F5887F00DD00252046FFF766FE1FFA31
:1013300080F83B462A4631464046FFF7BBFF8146D0
:10134000A41C2DE020780D280AD105F1160085B2E5
:10135000B5F5887F00DD0025641C4FF0000920E012
:1013600020780A2804D10026641C4FF0000918E0F8
:1013700006F10C00B0F5F07F07DD002605F10C004A
:1013800085B2B5F5887F00DD0025194840680090DA
:1013900017482278294603683046FFF700FD641C91
:1013A00000BFABE700BFBDE8F8832DE9F843054671
:1013B0008846144600260F480D49486048E02078CA
:1013C00000B946E02078302807DB2078392804DC93
:1013D000207830381FFA80F922E020782E280BD1AF
:1013E0004FF00A091CE00000AC210100E33F0100BE
:1013F000100000103434650020782D2802D14FF001
:101400000B090DE02078202802D14FF00C0907E0ED
:101410002078562802D14FF00D0901E04FF00E0957
:101420004FEA4917F81707EB5070C01000EBC001E6
:10143000C1EB8010B5490844A919009088B2372340
:1014400020224146FFF711FE641C06F1200086B2FF
:10145000B5E700BFBDE8F8832DE9F84306460D4621
:1014600014461F464FF00008C14654E0207800B9EA
:1014700052E006EB090086B2207880281ADD06F1DA
:101480001000B0F5F07F07DD002605F1100085B2F1
:10149000B5F5887F00DD00252046FFF7C9FD1FFA5E
:1014A00080F83B462A4631464046FFF710FF81460A
:1014B000A41C2FE020780D280AD105F1100085B278
:1014C000B5F5887F00DD0025641C4FF0000922E09F
:1014D00020780A2804D10026641C4FF000091AE085
:1014E00006F10800B0F5F07F07DD002605F10800E1
:1014F00085B2B5F5887F00DD0025854840680090FD
:1015000083482278294603683046FFF748FC641C6C
:101510004FF00A0900BFA9E700BFBDE8F8832DE935
:10152000F84306460D4614461F464FF00008C146D4
:1015300054E0207800B952E006EB090086B220782A
:1015400080281ADD06F11000B0F5F07F07DD0026D7
:1015500005F1100085B2B5F5887F00DD0025204635
:10156000FFF766FD1FFA80F83B462A4631464046A3
:10157000FFF7ADFE8146A41C2FE020780D280AD18C
:1015800005F1100085B2B5F5887F00DD0025641CEB
:101590004FF0000922E020780A2804D10026641CBC
:1015A0004FF000091AE006F10800B0F5F07F07DD02
:1015B000002605F1080085B2B5F5887F00DD00251D
:1015C00053484068009052482278294603683046C4
:1015D000FFF730FC641C4FF0080900BFA9E700BF0B
:1015E000BDE8F883F0B504461D46062A00DD0A2250
:1015F00002B90122052900DD0521914200DD1146D5
:10160000002004E02026434F3E54461CF0B20C2834
:10161000F8D310460FE00A26B4FBF6F706FB174690
:101620003036471EDFF8ECC00CF807600A26B4FB22
:10163000F6F4461EF0B20028EDDC89B113460846E8
:1016400005E05E1E334FBE5DFE545E1EF3B2061E05
:10165000A0F10107F8B2F4D12E262E4FFE5402E07D
:1016600020262C4FBE54A5B900200EE0294E365C32
:10167000302E07D1274F461CBE5D2E2E02D02026CD
:101680003E5400E004E0461CF0B2561E8642EDDCFB
:1016900000BF561CF2B2104604E000261D4F3E5417
:1016A000461CF0B20C28F8D3F0BD30B51A4A002120
:1016B0000CE00478457844EA0524857844EA05433B
:1016C00042F80439401C401C401C491CB1F5FF3F46
:1016D000EFD330BD70B5114B002112E000220CE0B9
:1016E00005782D04467845EA0625867845EA0604FD
:1016F00010C3401C401C401C521CB2F5F07FEFD3BD
:10170000491CB1F5887FE9D370BD0000EC69010088
:10171000100000101446001000F808A0000001A0FE
:1017200038B5002474E0FD48A10004EB440303EB4A
:10173000041301EB8301009088B204EB84014C2375
:1017400003EB01118AB240F20F13E421FFF775FA9F
:10175000F34804EB84014C2303EB01118AB204EB40
:1017600084010901491C009088B2E3231946FFF760
:1017700099FAEB4804EB84014C2303EB01118AB284
:1017800004EB840103EB0111009088B240F20F13C7
:10179000E321FFF787FA002004EB84014C2303EBDD
:1017A0000111491C8AB204EB840103EB0111491CAD
:1017B000009088B240F20F13E321FFF773FA002084
:1017C00004EB84014C2303EB0111891C8AB204EB66
:1017D000840103EB0111891C009088B240F20F13C1
:1017E000E321FFF75FFA002004EB84014C2303EBB5
:1017F0000111C91C8AB204EB840103EB0111C91C5D
:10180000009088B240F20F13E321FFF74BFA641CFB
:10181000062C88D338BD10B5FFF782FFBF48C149F9
:1018200048606FF07F4008600023BFA2F121542080
:10183000FFF712FE0023BEA2F121A420FFF70CFE49
:1018400010BD70B50546FFF76BFFB448B549486059
:101850006FF07F400860A5B900240FE004EB44015D
:10186000B54B03EB410204EB8401542303EB01105D
:101870000023F121FFF7F0FD601CC4B2052CEDDB65
:1018800014E0002410E0611D01EB4101AA4B03EBC1
:10189000410204EB8401542303EB01100023F121E6
:1018A000FFF7DAFD601CC4B2052CECDB70BD10B58F
:1018B000FFF736FF99489B4948606FF07F4008600A
:1018C00000239EA2F1215420FFF7C6FD10BD10B5E4
:1018D000FFF726FF9148934948606FF07F4008600A
:1018E000002398A2F1215420FFF7B6FD10BD10B5DA
:1018F0000446FFF715FF002C38D16FF07F4089496F
:1019000008608648486000238FA2E7215420FFF733
:10191000A3FD00238EA2FB215420FFF79DFD002391
:1019200089A2E721A420FFF797FD00238AA2FB21CB
:10193000A420FFF791FD002389A2E721F420FFF7FF
:101940008BFD002384A2FB21F420FFF785FD0023FB
:1019500083A2E7214FF4A270FFF77EFD002382A24D
:10196000FB214FF4A270FFF777FD2DE0012C2BD166
:101970006FF07F406B4908606848486000237CA294
:10198000E7215420FFF768FD00237BA2FB215420B0
:10199000FFF762FD00237AA2E721A420FFF75CFD98
:1019A000002379A2FB21A420FFF756FD002378A293
:1019B000E7214FF4CA70FFF74FFD002376A2FB2109
:1019C0004FF4CA70FFF748FD10BD10B5FFF7A8FE31
:1019D0006FF07F405349086050484860002370A270
:1019E000E7215420FFF738FD00236FA2FB2154208C
:1019F000FFF732FD00236EA2F1214FF4A270FFF732
:101A00002BFD00236CA2F1214FF4CA70FFF724FDD7
:101A100010BD10B50446FFF783FE0CB1012C32D186
:101A20006FF07F403F4908603C484860002364A253
:101A3000F1215420FFF710FD002363A2E721A42029
:101A4000FFF70AFD002362A2FB21A420FFF704FD9B
:101A5000002361A2E721F420FFF7FEFC00235CA233
:101A6000FB21F420FFF7F8FC002351A2F1214FF4F1
:101A7000A270FFF7F1FC00234FA2F1214FF4CA70CE
:101A8000FFF7EAFC25E06FF07F4026490860234815
:101A9000486000234AA2F1215420FFF7DDFC002317
:101AA0004BA2E721A420FFF7D7FC00234CA2FB2187
:101AB000A420FFF7D1FC00233DA2F1214FF4A27036
:101AC000FFF7CAFC00233CA2F1214FF4CA70FFF7D4
:101AD000C3FC10BD10B50446FFF722FE002C1CD13C
:101AE0006FF07F400F4908600C484860002316A241
:101AF000E7215420FFF7B0FC002315A2FB2154205E
:101B0000FFF7AAFC002310A2E721A420FFF7A4FC02
:101B1000002311A2FB21A42066E086E038003100FA
:101B20006843690010000010206DA6B82020000056
:101B300020A6B82000000000F1B0010020C8B7C8FE
:101B4000CF2000002A310000B2E2C1BF0000000037
:101B5000CFD4CABE00000000C9E8D6C30000000010
:101B6000CFB5CDB300000000D0C5CFA2000000006B
:101B7000CEC4BCFE00000000B9DCC0ED00000000D7
:101B8000B1A3B4E600000000CAFDBEDD0000000005
:101B9000B8FCB6E00000000020322F320000000048
:101BA000C7E5B3FD00000000B1EDB8F10000000092
:101BB000C9CFD2BBD2B30000CFC2D2BBD2B30000D8
:101BC000C9BEB3FDD0D00000CFDFD0D400000000EC
:101BD000D7D4B6AF00000000B6D4CAFD00000000A4
:101BE000B8B4D6C600000000FFF736FC0023AFF201
:101BF0009002E721F420FFF72FFC0023AFF2A802A8
:101C0000FB21F420FFF728FC0023AFF2AC02E72110
:101C10004FF4A270FFF720FC0023AFF2B402FB21C7
:101C20004FF4A270FFF718FC39E0012C37D16FF0A8
:101C30007F40FE490860FE4848600023AFF2D002B2
:101C4000E7215420FFF708FC0023AFF2D402FB2168
:101C50005420FFF701FC0023AFF2FC02E721A4208F
:101C6000FFF7FAFB0023AFF21012FB21A420FFF7CD
:101C7000F3FB0023EFA2F121F420FFF7EDFB00239B
:101C8000AFF2F402E7214FF4CA70FFF7E5FB00233F
:101C9000AFF2FC02FB214FF4CA70FFF7DDFB10BD71
:101CA00010B56FF07F40E1490860E14848600023CB
:101CB000AFF26C12E7215420FFF7CEFB0023AFF206
:101CC0007012FB215420FFF7C7FB0023AFF28812EC
:101CD000E721A420FFF7C0FB0023AFF28412FB2111
:101CE000A420FFF7B9FB0023AFF28C12E721F42008
:101CF000FFF7B2FB0023AFF2A012FB21F420FFF7A5
:101D0000ABFB0023AFF2A812E7214FF4A270FFF75C
:101D1000A3FB0023AFF2B012FB214FF4A270FFF738
:101D20009BFB10BD38B50446C448C4EB04117823AE
:101D300003EBC1018AB2C4EB0411002303EBC10120
:101D4000009088B216230021FEF777FFBB4840F2CF
:101D50000F1340F2DF12FD2100900020FEF76DFF0F
:101D600038BD08B5B648FD234FF4F0725C210090F1
:101D70000020FEF762FF08BD10B50020FFF7D2FF7C
:101D8000FFF7EFFF10BD70B5FFF7F6FF6FF07F4074
:101D9000A6490860002421E024B14FF05010A34967
:101DA000486002E0A548A149486004EB840101EBCA
:101DB000C401A44B03EB4103A34991F86A1001EB62
:101DC000810505EBC1015A18C4EB0411002303EB94
:101DD000C10188B20421FFF73FFB641C042CDBD354
:101DE0006FF07F40914908604FF050104860002428
:101DF00034E0032C18D204EB8400944B03EB8003F3
:101E0000914890F86A0000EB800003EB400204EB7D
:101E1000440000EBC4001A2303EB400081B200230E
:101E20001846FFF719FB18E004EB8400874B03EB1F
:101E30008003854890F86A0000EB800003EB4002C5
:101E4000E01E00EB400303EBC0001A2303EB40004D
:101E500081B20023FA20FFF7FFFA641C062CC8D3D6
:101E600070BD08B57648BE2340F2DF1270210090A5
:101E70000020FEF7E2FE08BD10B50020FFF752FF7C
:101E8000FFF74EFCFFF7EDFF10BD38B504464FF0ED
:101E90005010664948606E4800EB84020123C82157
:101EA0001420FFF7D9FA6B4800EB84020123C82104
:101EB0004FF48C70FFF7D0FA61485C49486066487F
:101EC000372328227A2100905020FFF7CEF863486C
:101ED000372328227A2100907820FFF7C6F860483F
:101EE000372328227A2100908C20FFF7BEF838BDD6
:101EF00010B5FFF7C1FF6FF07F404C4908604F48B5
:101F000048600023574A04211846FFF7A5FA6FF0EE
:101F10007F40464908604FF050104860002422E09E
:101F2000032C0FD2504800EBC40204EB440000EB3A
:101F3000C4001A2303EB400081B200231846FFF7C8
:101F40008BFA0FE0484800EBC402E01E00EB4003B0
:101F500003EBC0001A2303EB400081B20023FA20F8
:101F6000FFF77AFA641C072CDAD3404991F8B803DA
:101F7000FFF78BFF0020FFF7BAFC10BD08B5304813
:101F8000A02340F2DF12562100900020FEF755FEFC
:101F90002B48E32340F2DF12C12100900020FEF71E
:101FA0004CFE08BD10B50020FFF7BCFEFFF7B8FBE4
:101FB000FFF7E4FF10BD2DE9F04104460D4616463B
:101FC0002B4B1B5D03EB43032A4FDA19B1B2A8B2C6
:101FD0000023FFF741FABDE8F08110B5FFF7E2FFFB
:101FE0006FF07F40114908601448486000231D4A83
:101FF000163204211846FFF72FFA6FF07F400B4985
:1020000008604FF05010486000240EE0C4EBC4019B
:10201000194BCA1804EB84014FF6FF7303EA411011
:1020200000231A21FFF718FA641C27E010000010A3
:1020300038003100B9A4BEDF00000000F3520300F5
:1020400034346500B9AB010040010010D19B0100A0
:10205000AC9F010008A00100717E0100B490010056
:10206000C791010037AC0100B2A70100A80200101F
:1020700042B101005AB10100EFAD0100032CC5D3FC
:10208000FA48D0F8C00300EB400101EBC000F8496A
:10209000421801231A213C20FFF7DEF9F34A92F897
:1020A0000C110023D2F808010622FFF79BFA012346
:1020B000F04A1A21DC20FFF7CFF9EC48D0F81001E4
:1020C00000EB4000EC49421801231A214FF49170B3
:1020D000FFF7C2F9E5491A22D1F8B8034FF4967117
:1020E000FFF769FF0023E5A22E211846FFF717FA34
:1020F0000023E3A22E217820FFF711FA0023E2A2A9
:102100002E21F020FFF70BFA0023E1A22E214FF43D
:10211000C870FFF704FA06243FE0A01F012801D988
:10212000072802D3A01F082803D9DB48DB494860F1
:1021300003E04FF05010D9494860A01FC0EBC00128
:10214000D74800EBC1004068E0B1A21FC2EBC20358
:10215000D34A02EBC302117AA21FC2EBC203D04AD8
:1021600002EBC302012350680622FFF73BFAA01FCF
:10217000C0EB00103A3081B20123BE4A7820FFF74D
:10218000CEF909E0A01FC0EB00103A3081B2012364
:10219000C4A27820FFF7C3F9641C0F2CBDD3BE483E
:1021A000BE494860B148D0F80C0378B1AF4A92F804
:1021B00010130123D2F80C030622FFF713FA0123B0
:1021C000AC4AC4217820FFF7AAF905E00123B5A2A3
:1021D000C4217820FFF7A3F9102447E0A4F11000F0
:1021E000012801D9072803D3A4F11000082803D936
:1021F000A948AA49486003E04FF05010A749486039
:10220000A4F11000C0EBC001A54800EBC100006ABA
:1022100000B3A4F11002C2EBC203A14A02EBC30255
:1022200092F82410A4F11002C2EBC2039C4A02EB04
:10223000C3020123106A0622FFF7D4F9A4F11000AB
:10224000C0EB00103A3081B201238A4AFA20FFF72E
:1022500066F90AE0A4F11000C0EB00103A3081B238
:10226000012390A2FA20FFF75AF9641C192CB5D368
:1022700089488A4948607D48D0F80C0378B17B4A88
:1022800092F8F4120123D2F8F0020622FFF7AAF91D
:102290000123784AC421FA20FFF741F905E0012320
:1022A00080A2C421FA20FFF73AF9012419E0022C98
:1022B00005D9082C03D278487849486003E04FF0EC
:1022C000501076494860601E00EBC000774BC21882
:1022D000C4EB04102B3081B200230820FFF71FF954
:1022E000641C0A2CE3D36C486C494860002370A23C
:1022F000C4211846FFF713F900236EA2D421184613
:10230000FFF70DF900236DA2D421F020FFF707F9A4
:102310000020FFF7ECFA10BD08B55F48A02340F29B
:10232000DF12602100900020FEF787FC08BD10B589
:102330000020FFF7F7FCFFF7F3F9FFF7EDFF10BD03
:1023400010B5FFF7F4FF6FF07F40544908605D4817
:10235000486000235C4A04211846FFF77DF86FF0BF
:102360007F404E4908604FF050104860002357A24C
:102370001A211846FFF770F8002356A230212820B2
:10238000FFF76AF8002356A230218C20FFF764F88B
:10239000002355A23021F020FFF75EF8002354A25D
:1023A00030214FF4AA70FFF757F8002352A23021D2
:1023B0004FF4DC70FFF750F80020FFF798FA10BDDB
:1023C00008B535489A2340F2DF125A2100900020C8
:1023D000FEF733FC08BD10B504462046FFF7A2FC0B
:1023E000FFF7EEFF10BD70B50120FFF7F4FF6FF0AF
:1023F0007F402A490860002422E0012C04D04FF0DD
:1024000050102649486002E02E482449486004EBF9
:10241000840101EBC401394B03EB4103384991F8C6
:102420006A1001EB810505EBC1015A18C4EB0411D8
:10243000002303EBC10188B20421FFF70DF8641CEF
:10244000042CDAD36FF07F40144908604FF050102D
:102450004860002495E0092C6ED2022C52D9062C3B
:1024600050D20D480D49486050E00000A80200100D
:1024700018A10100144600102DB1010042494E0080
:102480004C4F57205B465D00484947485B465D001E
:10249000434F554E540000003434650010000010C6
:1024A000D40300102D2D2D2D2D2D0000DC990100C1
:1024B000326E64004155583A000000004F55543ABE
:1024C00000000000F352030063AC0100B7BDCABDB9
:1024D000203A0000C6B5C2CA5B487A5D0000000021
:1024E000B5E7C6BD5B565D0043705B465D0000000E
:1024F000445B205D00000000434D5000B9AB01007B
:10250000400100104FF05010FE49486004EB840079
:10251000FD4B03EB8003FD4890F86A0000EB800060
:1025200003EB4002162304FB03F01A3081B20023B0
:102530001846FEF791FF23E0A4F10900022805D90F
:10254000062803D2F248EF49486003E04FF05010EC
:10255000EC49486004EB8400EB4B03EB8003EB4851
:1025600090F86A0000EB800003EB4002A4F1090040
:10257000162358431A3081B20023FA20FEF76CFF6D
:10258000641C122CFFF467AF70BDF8B505464FF020
:102590005010DC494860DF48D0F8B80300EBC000B9
:1025A000DD49421801231A215820FEF755FFD9486A
:1025B000D0F8C00300EB400101EBC000D74942183E
:1025C000012330215820FEF747FFD248D0F8C4033A
:1025D00000EB400101EBC000D14942180123462124
:1025E0005820FEF739FFCB48D0F8180400EB400123
:1025F00001EBC000CB49421800231A214FF4A97007
:10260000FEF72AFFC348D0F8200400EB400101EB9D
:10261000C000C5494218012346214FF4A970FEF7B6
:102620001BFFBC48D0F81C0400EB400101EBC000CC
:10263000BE494218012330214FF4A970FEF70CFF68
:102640002878012800D100E0002006461EB1FF20B6
:10265000AC49486003E04FF05010AA494860A948CF
:1026600040686E234FF4DD725A2100904FF4A97038
:10267000FEF7E3FAA748D0F8280100EB400101EB90
:10268000C000AA49421801235C214FF4A970FEF74B
:10269000E3FEFFF745F8287801281BD16FF07F4053
:1026A00098490860A2484860002410E004EB440107
:1026B00001EBC4019D4BCA1804EB8401542303EBC6
:1026C000011188B20023F121FEF7C6FE641C022C22
:1026D000ECD302E00020FFF70AF9F8BDF8B5054693
:1026E0004FF05010874948602878012800D100E059
:1026F000002006461EB1FF208249486003E04FF0EB
:102700005010804948607F4840682A234FF4D772B0
:102710001A2100904FF4BE70FEF78FFA7D48D0F872
:102720005C0300EB400101EBC0008049421801232B
:102730001A214FF4BE70FEF78FFEFEF7F1FF2878E6
:1027400001281BD16FF07F406E49086078484860CF
:10275000002410E004EB440101EBC401734BCA18E0
:1027600004EB8401542303EB011188B20023F1210F
:10277000FEF772FE641C022CECD302E00020FFF78F
:10278000B6F8F8BD70B5054601246AE1022C05DDF6
:10279000072C03DA5E485B49486003E04FF05010B5
:1027A00058494860601E5B4991F87D1401EB810136
:1027B00000EB410000EB80015E4800EB8100806887
:1027C000401C40B9332000EB041100235AA2F6202C
:1027D000FEF7A5FE27E0621E4E4B93F87D3403EB17
:1027E000830302EB430202EB8203524A02EB8302B1
:1027F000117B621E474B93F87D3403EB830302EB9E
:10280000430202EB82034B4A02EB830201239068EE
:102810000522FEF7E7FE332000EB04110023484AAF
:10282000F620FEF77CFE601E3A4991F87D1401EB1C
:10283000810100EB410000EB8001424800EB810088
:102840008068401C48B9332000EB041100233AA2F1
:102850004FF4AD70FEF763FE28E0621E2D4B93F837
:102860007D3403EB830302EB430202EB8203354A20
:1028700002EB8302117B621E264B93F87D3403EB3F
:10288000830302EB430202EB82032E4A02EB830234
:10289000012390680522FEF7A5FE332000EB04110A
:1028A0000023274A4FF4AD70FEF739FE601E194928
:1028B00091F87D1401EB810100EB41012248405C5D
:1028C000FF2809D1332000EB041100231FA24FF48D
:1028D000DF70FEF724FE46E0601E0E4991F87D147D
:1028E00001EB810100EB41011748405C48B1332006
:1028F00000EB0411002316A24FF4DF70FEF70FFE69
:1029000031E027E01000001022A801004001001073
:1029100034346500A8020010D49E010018A1010003
:102920002DA3010076A3010050A4010089A4010099
:1029300038003100CC0800102D2D2D2D0000000096
:1029400014460010341900109C2900102D000000BE
:1029500050000000332000EB04110023FEA24FF4CE
:10296000DF70FEF7DCFD022C05DD072C03DAFB48E7
:10297000FB49486003E04FF05010F9494860601E81
:10298000F84991F87D1401EB810100EB4101F64813
:10299000405C1E2809DD332000EB04110023AFF258
:1029A00068022620FEF7BBFD16E0601EED4B93F893
:1029B0007D3403EB830300EB4303EB48C05C00EB87
:1029C000400303EBC000E94BC218332000EB0411B5
:1029D00000232620FEF7A3FD601EE24991F87D1436
:1029E00001EB810100EB4101DF48D230405C02285D
:1029F00009DD332000EB04110023AFF2C402922062
:102A0000FEF78DFD17E0601ED64B93F87D3403EB87
:102A1000830300EB4303D448D230C05C00EB400397
:102A200003EBC000D24BC218332000EB041100238B
:102A30009220FEF774FDCB4991F87D1401EB8101E2
:102A400004EB4100012303220021FEF7CBFD3320DC
:102A500000EB04110023C74A0820FEF760FD601C4C
:102A6000C4B20B2CFFF692AE70BDF8B505462878BF
:102A7000022802D1FEF7A9FF05E02878022802DD2E
:102A8000A878FEF7C6FF2878012805D1A87818B9DC
:102A9000FF20B349486003E04FF05010B049486050
:102AA000AF4840682A235E221A2100903620FEF7A4
:102AB000C4F8AC48D0F8840300EBC000AE4942181B
:102AC00000231A213620FEF7C7FC2878022805D1FA
:102AD000A87818B9FF20A249486003E04FF05010D1
:102AE0009F4948609E48406842231E223221009040
:102AF0000020FEF7A2F80023A0A232211846FEF71C
:102B0000ABFC0324D7E12878A04206D1A87802289C
:102B100003D1FF209249486003E04FF050109049E4
:102B200048608F4840680090A01E332202EB0010DE
:102B3000103083B2A01E02EB001081B24FF49972E4
:102B4000FA20FEF77AF8E01EE97801EB810100EB4C
:102B5000410000EB80018A4800EB81008068401C46
:102B600058B9A01E332202EB001081B20023AFF24D
:102B70003822FA20FEF7D3FC25E0E21EEB7803EBC7
:102B8000830302EB430202EB82037D4A02EB8302E2
:102B9000117BE21EEB7803EB830302EB430202EBB3
:102BA0008203774A02EB8302012390680522FEF735
:102BB00019FDA01E332202EB001081B200236D4AE2
:102BC000FA20FEF7ACFC2878A04206D1A8780328AA
:102BD00003D1FF206249486003E04FF05010604984
:102BE00048605F4840680090A01E332202EB00104E
:102BF000103083B2A01E02EB001081B24FF4C172FC
:102C00004FF4A570FEF719F8E01EE97801EB810199
:102C100000EB410000EB80015A4800EB8100806826
:102C2000401C60B9A01E332202EB001081B20023C9
:102C3000AFF2FC224FF4A570FEF771FC26E0E21E15
:102C4000EB7803EB830302EB430202EB82034D4A72
:102C500002EB8302117BE21EEB7803EB830302EBB2
:102C6000430202EB8203474A02EB8302012390688E
:102C70000522FEF7B7FCA01E332202EB001081B242
:102C800000233C4A4FF4A570FEF749FC2878A04287
:102C900006D1A878042803D1FF203149486003E019
:102CA0004FF050102E4948602D4840680090A01EFB
:102CB000332202EB0010103083B2A01E02EB001092
:102CC00081B240F2DF124FF4D270FDF7B6FFE01E82
:102CD000E97801EB810100EB41012B48405CFF28C2
:102CE0000CD1A01E332202EB001081B20023AFF200
:102CF000B8324FF4D270FEF712FC0BE0A01E332264
:102D000002EB001081B20023AFF2BC324FF4D2705C
:102D1000FEF705FC2878A04205D1A87818B9FF2055
:102D20000F49486003E04FF050100D4948600C48CF
:102D300040680090A01E332202EB0010103083B2D6
:102D4000A01E02EB001081B27E222820FDF775FF45
:102D5000E01EE9781AE00000460000003434650007
:102D600010000010A80200102607001018A1010092
:102D70002DA3010014460010D49E01004E6F2E00BA
:102D8000CC080010341900109C29001001EB8101BF
:102D900000EB4101FE48405C30280BDDA01E3322D1
:102DA00002EB001081B20023AFF274422820FEF73C
:102DB000B6FB16E0E01EEB7803EB830300EB430366
:102DC000F348C05C00EB400303EBC000F14BC218BA
:102DD000A01E332303EB001081B200232820FEF74E
:102DE0009EFB2878A04206D1A878012803D1FF20B5
:102DF000E949486003E04FF05010E7494860E64871
:102E000040680090A01E332202EB0010103083B205
:102E1000A01E02EB001081B2C4227E20FDF70DFF40
:102E2000E01EE97801EB810100EB4101D848D23086
:102E3000405C02280BDDA01E332202EB001081B2A1
:102E40000023AFF20C527E20FEF769FB17E0E01E74
:102E5000EB7803EB830300EB4303CD48D230C05C37
:102E600000EB400303EBC000CC4BC218A01E332381
:102E700003EB001081B200237E20FEF750FB4FF0E1
:102E80005010C54948604860E97801EB810104EBC6
:102E90004101881E012303220021FEF7A3FBA01E8F
:102EA000332202EB001081B20023BD4A0820FEF756
:102EB00036FB601CC4B20D2CFFF625AEF8BDF8B58C
:102EC00005464FF05010B44948602878012800D1D9
:102ED00000E0002006461EB1FF20AF49486003E035
:102EE0004FF05010AC494860AB4840682A23582244
:102EF0001A2100903020FDF7A0FEAA4890F87C042B
:102F000000EB8000A849421801231A213020FEF767
:102F1000A3FA2878022801D1012000E0002006460B
:102F20001EB1FF209C49486003E04FF050109A49C1
:102F300048609948406840231E22302100900820B4
:102F4000FDF77BFE0123AFF2CC1230210820FEF703
:102F500083FA2878012819D16FF07F408E490860E4
:102F60009248486000240EE004EB84018E4BCA189E
:102F700004EB8401542303EB011188B20023FD21EB
:102F8000FEF76AFA641C022CEED320E028780228AF
:102F90001AD16FF07F40804908608448486000245F
:102FA0000FE0C4EBC401824BCA18E11C01EB8101A4
:102FB000542303EB011188B20023FD21FEF74CFAE4
:102FC000641C022CEDD302E06878FEF790FCF8BD9B
:102FD00038B504462078012800D100E000200546DD
:102FE0001DB1FF206C49486003E04FF050106A4962
:102FF0004860694840682C23C0221821009058205E
:10300000FDF71BFE64484068009063480368694808
:1030100000783130C2B21A217020FDF7C0FE20784E
:10302000022801D1012000E0002005461DB1FF204B
:103030005949486003E04FF05010574948605D49D6
:10304000097801EB81025B49891C01EB8201C88987
:10305000002304221946FEF7C5FA4F484068422370
:10306000C022302100905820FDF7E7FD00234C4A94
:1030700030215820FEF7F0F900234FA230218A209A
:10308000FEF7EAF92078032801D1012000E00020B2
:1030900005461DB1FF204049486003E04FF0501045
:1030A0003D4948604349097801EB81024149891C47
:1030B00001EB8201088A002304221946FEF792FAE6
:1030C000354840685823C022462100901846FDF735
:1030D000B4FD0023324A46215820FEF7BDF90023F3
:1030E00035A246218A20FEF7B7F92078042801D1BD
:1030F000012000E0002005461DB1FF202649486060
:1031000003E04FF05010244948602C480068112813
:103110001FD1214840682C234FF4DD721821009004
:103120004FF4A970FDF789FD2248007800EB80017B
:103130002048801C00EB8100408900EB400101EB3E
:10314000C0001F49421800231A214FF4A970FEF74E
:1031500083F92078052801D1012000E000200546F0
:103160001DB1FF200C49486003E04FF050100A49A0
:1031700048601049097801EB81020E49891C01EB76
:1031800082014888002304221946FEF72BFA19E031
:103190002607001018A10100100000102DA3010047
:1031A00014460010A80200109FA40100380031004E
:1031B000A9A40100400100104DA6B800A000001015
:1031C00076A30100FE48406842234FF4DD722E21B1
:1031D00000904FF4A970FDF730FD0023F94A30212B
:1031E0004FF4AE70FEF738F90023F7A230214FF408
:1031F000C170FEF731F92078062801D1012000E0E6
:10320000002005461DB1FF20ED49486003E04FF066
:103210005010EB494860ED49097801EB8102EB4918
:10322000891C01EB82018888002304220121FEF71A
:10323000D9F90023E34A46214FF4A970FEF70CF9AF
:103240000023E3A246214FF4C170FEF705F938BD13
:10325000F8B505462878012800D100E00020064690
:103260001EB1FF20D649486003E04FF05010D4490A
:103270004860D34840682C23C02218210090582071
:10328000FDF7DBFCCE4840680090CD480368CF488E
:1032900000783130C2B21A215820FDF780FD28781D
:1032A000022801D1012000E0002006461EB1FF20C7
:1032B000C349486003E04FF05010C1494860C0481E
:1032C00040684223C0222E2100905820FDF7B5FC13
:1032D000BE48007800EB8001BC48801C30F821001B
:1032E000C0EBC000BB4901EB4001B84890F86A0050
:1032F000C0EBC0000A18002330215820FEF7ACF8BC
:103300002878032801D1012000E0002006461EB1E4
:10331000FF20AB49486002E0AF48A9494860A8488F
:1033200040686E23C0225A2100905820FDF785FC8A
:10333000A649097801EB8102A449891C01EB8201AD
:103340004888002304221946FEF74CF900239D4AC1
:103350005C216020FEF780F80023A0A25C2196206B
:10336000FEF77AF82878042801D1012000E0002037
:1033700006461EB1FF209249486002E096489049F7
:1033800048609249097801EB81029049891C01EB60
:1033900082018888002304220121FEF723F988484E
:1033A00040688423C022702100905820FDF745FC1E
:1033B0000023844A72216220FEF74EF8002388A27F
:1033C00072219620FEF748F82878052801D10120BF
:1033D00000E0002006461EB1FF207949486003E066
:1033E0004FF050107649486075484068B023C022BD
:1033F0009C2100905820FDF720FC7448007800EBD9
:1034000080017248801C00EB8100C088C0EBC000C6
:10341000744901EB40016D4890F86A00C0EBC000B0
:103420000A1800239E215820FEF716F8287806284F
:1034300001D1012000E0002006461EB1FF206049B6
:10344000486003E04FF050105D4948605C484068B8
:10345000C623C022B22100905820FDF7EEFB5B4846
:10346000007800EB80015948801C00EB8100008946
:10347000C0EBC0005B4901EB4001544890F86A0082
:10348000C0EBC0000A180023B4215820FDF7E4FF68
:103490002878072801D1012000E0002006461EB14F
:1034A000FF204749486003E04FF05010444948600E
:1034B000434840682C234FF4DD72182100904FF4EC
:1034C000A970FDF7BAFB4148007800EB80013F4846
:1034D000801C00EB8100408900EB400101EBC00043
:1034E0004149421800231A214FF4A970FDF7B4FF97
:1034F0002878082801D1012000E0002006461EB1EE
:10350000FF202F49486003E04FF050102C494860DD
:103510002B48406842234FF4DD722E2100904FF477
:10352000A970FDF78AFB2948007800EB8001274845
:10353000801C00EB81008089C0EBC0002B4901EBAF
:103540004001224890F86A00C0EBC0000A1800232E
:1035500030214FF4A970FDF77FFF2878092801D1A9
:10356000012000E0002006461EB1FF2014494860FB
:1035700002E01948124948601449097801EB8102B8
:103580001249891C01EB8201C889002304221946D3
:10359000FEF728F80A4840686E234FF4DD725A217E
:1035A00000904FF4A970FDF748FB0023054A5C2109
:1035B0004FF4A970FDF750FF0023AFF2044217E06B
:1035C00010000010144600102056000040010010AA
:1035D00020730000579C0100343465005600000041
:1035E00073000000739C010076A30100DBA20100C0
:1035F0005C214FF4C270FDF72FFF28780A2801D113
:10360000012000E0002006461EB1FF20FE49486070
:1036100002E0FE48FC494860FD49097801EB81025F
:10362000FB49891C01EB8201088A00230422194608
:10363000FDF7D8FFF448406884234FF4DD72702111
:1036400000904FF4A970FDF7F8FA0023F14A7221B7
:103650004FF4A970FDF700FF0023AFF2A4427221DE
:103660004FF4C270FDF7F8FE28780B2801D1012035
:1036700000E0002006461EB1FF20E349486003E059
:103680004FF05010E0494860DF484068B0234FF4E5
:10369000DD729C2100904FF4A970FDF7CEFADC4852
:1036A000007800EB8001DA48801C00EB8100408A42
:1036B000C0EBC000D84901EB4001D54890F86A0042
:1036C000C0EBC0000A1800239E214FF4A970FDF73B
:1036D000C3FED24840F20F1340F2DF12FD210090EA
:1036E0000020FDF7AAFA6FF07F40C7490860CB4879
:1036F000486028780D286FD2DFE800F007080F2A0D
:103700003138536F85A0A7AEC900C2E00023C4A220
:10371000FE215420FDF7A0FEBBE0002415E0C4EB21
:10372000C401C24B03EB4103B94991F86A10C1EBE4
:10373000C1015A1804EB8401542303EB011188B230
:103740000023FE21FDF788FE641C022CE7D3A0E0D5
:103750000023B7A2FE215420FDF77EFE99E000234E
:10376000B6A2FE215420FDF777FE92E0002415E07A
:10377000C4EBC401A84B03EB4103A54991F86A10BF
:10378000C1EBC1015A1804EB8401542303EB01116E
:1037900088B20023FE21FDF75FFE641C022CE7D3F4
:1037A00077E0002415E0C4EBC4019B4B03EB41031D
:1037B000974991F86A10C1EBC1015A1804EB8401D2
:1037C000542303EB011188B20023FE21FDF744FED0
:1037D000641C022CE7D35CE05AE0002410E004EB08
:1037E000440101EBC401984BCA1804EB8401542333
:1037F00003EB011188B20023FE21FDF72DFE641CAE
:10380000052CECD345E0002415E0C4EBC4018F4B3C
:1038100003EB41037E4991F86A10C1EBC1015A18CC
:1038200004EB8401542303EB011188B20023FE2131
:10383000FDF712FE641C032CE7D32AE0002384A2C8
:10384000FE215420FDF708FE23E0002380A2FE2184
:103850005420FDF701FE1CE0002415E0C4EBC40178
:103860006D4B03EB41036A4991F86A10C1EBC1014A
:103870005A1804EB8401542303EB011188B200238E
:10388000FE21FDF7E9FD641C022CE7D301E000E016
:1038900000BF00BFF8BD2DE9F04104460D461646B5
:1038A00004EB44036C4FDA19B1B2A8B20123FDF75F
:1038B00036FEBDE8F081F8B505464FF0501052498C
:1038C00048606648D0F8200178B964494122D1F8AF
:1038D000B8034FF4B471FFF7DEFF60494122D1F81D
:1038E000B803C821FFF7D7FF0CE000235CA24121F9
:1038F0004FF4B470FDF713FE002359A24121C820F4
:10390000FDF70DFE2878012800D100E000200646D2
:103910001EB1FF203C49486003E04FF050103A4987
:103920004860394840682C237022182100904620B6
:10393000FDF783F94948D0F8B80300EBC0004949C6
:10394000421801231A214620FDF786FD2878022817
:1039500001D1012000E0002006461EB1FF202A49C7
:10396000486003E04FF05010274948603B4A92F806
:103970000C110023D2F808010522FDF733FE22487E
:1039800040682A234FF492721A210090E220FDF73A
:1039900054F901231F4A1A21E220FDF75DFD2F484B
:1039A000D0F8100100EB40002F49421801231A21E2
:1039B0004FF48E70FDF750FD2878032801D10120C7
:1039C00000E0002006461EB1FF200F49486003E0DA
:1039D0004FF050100C4948600B4840682C234FF4BE
:1039E000E272182100900801FDF727F91B48D0F872
:1039F00020011E4901EB800201231A214FF4C070FF
:103A0000FDF72AFD287833E01000001034346500FB
:103A10004001001014460010739C0100F352030093
:103A2000D7E9B1F0312DD7E9B1F03500579C01004D
:103A30003235562D313030305600000030532D399C
:103A400039392E395300000076A30100DBA20100B2
:103A5000302D393939394D005AB10100A802001012
:103A600025000000D49E01002DB101009BAF010094
:103A7000042801D1012000E0002006461EB1FF20ED
:103A8000FD49486003E04FF05010FB494860FA4898
:103A90004068422370222E2100904620FDF7CDF889
:103AA000F648D0F8000100EB8000F54942180023E9
:103AB00030214620FDF7D0FC2878052801D10120CF
:103AC00000E0002006461EB1FF20EB49486003E0FD
:103AD0004FF05010E8494860E748406842234FF4EF
:103AE000AB722E210090FA20FDF7A7F8E348D0F83A
:103AF000280100EB8000E249421801233021FA201E
:103B0000FDF7AAFC062477E02878A04203D1FF2025
:103B1000D94948600CE0A01F022805D9072803D224
:103B2000D848D549486003E04FF05010D24948606A
:103B3000D14840680090A01FC0EB00105B3083B2FA
:103B4000A01FC0EB00104C3081B2DC229820FDF7A2
:103B500074F8A01FC0EBC001CB4800EBC100406867
:103B6000F0B3A21FC2EBC203C74A02EBC302117A31
:103B7000A21FC2EBC203C44A02EBC3020023506877
:103B80000522FDF72FFDA01FC0EB00104C3081B2C5
:103B90000123BEA29820FDF7C2FCA01FC0EB0010BD
:103BA0004C3081B20123BA4AA020FDF7B8FCB348DB
:103BB000D0F82001F8B9A01FC0EBC003B24800EB59
:103BC000C300C06800EB4000B24BC218A01FC0EB9E
:103BD00000104C3081B20123D020FDF7A0FC0AE098
:103BE000FFE7A01FC0EB00104C3081B20123AA4AAE
:103BF000A020FDF794FC641C102C85D310247DE0DC
:103C00002878A04203D1FF209B4948600DE0A4F131
:103C10001000022805D9072803D29A48964948601F
:103C200003E04FF05010944948609348406800907A
:103C3000A4F11000C0EB00105F3083B2A4F11000BB
:103C4000C0EB00104C3081B24FF4BE724FF4A07044
:103C5000FCF7F3FFA4F11000C0EBC0018A4800EBB1
:103C6000C100006AE0B3A4F11002C2EBC203864AAD
:103C700002EBC30292F82410A4F11002C2EBC203BB
:103C8000814A02EBC3020023106A0522FDF7AAFC59
:103C9000A4F11000C0EB00104C3081B200237C4A2C
:103CA0004FF4A070FDF73BFC7448D0F8200120BB16
:103CB000A4F11000C0EBC003734800EBC300806A9E
:103CC00000EB4000734BC218A4F11000C0EB0010D1
:103CD0004C3081B201234FF4B870FDF720FC0CE0AA
:103CE000FFE7A4F11000C0EB00104C3081B20123BB
:103CF000694A4FF4A070FDF712FC641C1A2CFFF403
:103D00007FAFFDF70DFD2878062857D2DFE800F0D9
:103D100003070809223C6878FDF7DCFE64E063E0F5
:103D200062E06FF07F40544908605C4848600024BE
:103D30000DE05B4901EB840204EB8401542303EBA7
:103D4000011188B20023F121FDF786FB641C022CCF
:103D5000EFD349E06FF07F40474908604F48486023
:103D600000240EE004EB8401454BCA1804EB8401E7
:103D7000542303EB011188B20023F121FDF76CFB02
:103D8000641C022CEED32FE06FF07F403A490860AC
:103D90004248486000240EE004EB8401384BCA1806
:103DA00004EB8401542303EB011188B20023F121B9
:103DB000FDF752FB641C022CEED315E0002339A260
:103DC000F1215420FDF748FB0023384AE7214FF446
:103DD000CA70FDF741FB0023344A0832FB214FF43F
:103DE000CA70FDF739FB00BF00BFF8BD70B50646CD
:103DF0000025002404E0002025490855601CC4B2B9
:103E0000062CF8DB002411E02948005D2049085504
:103E10000846005D302804DD0846005D303808554E
:103E200002E000201A490855601CC4B2042CEBDBE8
:103E300000240BE005EB85004FF6FF7101EA400519
:103E40001348005D284485B2601CC4B2042CF1DB29
:103E50001848015D002304222846FDF7C3FB307893
:103E60001622504300F11A010123094A4FF4A070B1
:103E7000FDF7F2FA70BD000010000010A80200105B
:103E8000E8A4010034346500D40300102D000000C4
:103E9000144600102DB10100A424000038003100A8
:103EA0009BAF0100C7E5B3FDD0D00000A01B000010
:103EB000CB4400106CB2010038B5054600242FE059
:103EC0002978601C814203D1FF20FE49486003E04D
:103ED0004FF05010FB494860FA4840680090A01C21
:103EE00016225043163083B2601C5043183081B202
:103EF000E822A020FCF7A1FEF34A115DF34A32F854
:103F0000140000230422FDF76DFB601C16225043B1
:103F10001A3081B20123EE4AA020FDF79DFA641CFD
:103F2000052CCDD34FF05010E649486038BDF8B5A8
:103F300005462878012800D100E0002006461EB181
:103F4000FF20E049486003E04FF05010DD49486031
:103F5000DC4840682C23C0221A2100906420FCF722
:103F60006CFEDA486C3890F86600C0EBC000D949A6
:103F700001EB4001D5486C3890F86A00C0EBC000F6
:103F80000A1800231C216420FDF766FA287802280D
:103F900001D1012000E0002006461EB1FF20C949E2
:103FA000486003E04FF05010C6494860C54840687B
:103FB0004223C022302100906420FCF73EFEC3481B
:103FC0006C3890F86700C0EBC000C349421800236A
:103FD00032216420FDF740FA2878032801D101201E
:103FE00000E0002006461EB1FF20B649486003E00D
:103FF0004FF05010B3494860B24840685823C0227F
:10400000462100906420FCF718FEB0486C3890F808
:104010006800C0EBC000AF4901EB4001AB486C3811
:1040200090F86A00C0EBC0000A1800234821642001
:10403000FDF712FA2878042801D1012000E00020C1
:1040400006461EB1FF209F49486003E04FF0501024
:104050009C4948609B4840686E23C0225C210090C8
:104060006420FCF7EAFD99486C3890F86900C0EBD1
:10407000C000984901EB400194486C3890F86A0000
:10408000C0EBC0000A1800235E216420FDF7E4F9AC
:104090002878052801D1012000E0002006461EB145
:1040A000FF208849486003E04FF050108549486080
:1040B000844840688423C022722100906420FCF769
:1040C000BCFD82486C3890F86A00844901EBC0025C
:1040D000002374216420FDF7BFF9814840F20F13DB
:1040E00040F2DF12FD2100900020FCF7A6FD6FF0EA
:1040F0007F40744908607A48486028780C2870D25C
:10410000DFE800F00607233753708396AFC8F8F452
:1041100024E1002416E0C4EBC4016E4B03EB410321
:104120006A496C3991F86A10C1EBC1015A1804EB65
:104130008401542303EB011188B20023FD21FDF714
:104140008BF9641C022CE6D308E100240EE0C4EBDA
:10415000C401614BCA1804EB8401542303EB011121
:1041600088B20023FD21FDF777F9641C052CEED3FE
:10417000F4E0002416E0C4EBC401564B03EB41030A
:1041800052496C3991F86A10C1EBC1015A1804EB1D
:104190008401542303EB011188B20023FD21FDF7B4
:1041A0005BF9641C022CE6D3D8E0002416E0C4EBD3
:1041B000C401484B03EB410344496C3991F86A1040
:1041C000C1EBC1015A1804EB8401542303EB011124
:1041D00088B20023FD21FDF73FF9641C022CE6D3D1
:1041E000BCE0BAE000240DE03C4901EBC40204EB62
:1041F0008401542303EB011188B20023FD21FDF754
:104200002BF9641C022CEFD3A8E000240DE0354903
:1042100001EBC40204EB8401542303EB011188B2C7
:104220000023FD21FDF718F9641C022CEFD395E063
:104230006FF07F40234908602B48486000240DE060
:10424000284901EBC40204EB8401542303EB011160
:1042500088B20023FD21FDF7FFF8641C022CEFD388
:104260007CE06FF07F40174908601F4848600024D9
:104270000DE01C4901EBC40204EB8401542303EB61
:10428000011188B20023F121FDF7E6F8641C022C2D
:10429000EFD363E06FF07F400A490860124848603E
:1042A00000240DE00F4901EBC40204EB8401542308
:1042B00003EB011188B20023F121FDF7CDF8641C56
:1042C000022C15E0100000106CB20100AC010010CF
:1042D00014460010739C0100B9B00100A9B00100A0
:1042E000F352030040A40100380031001BE001E05C
:1042F000D8D333E06FF07F40FE490860FE48486045
:1043000000240DE0FD4901EBC40204EB84015423B9
:1043100003EB011188B20023F121FDF79DF8641C25
:10432000022CEFD31AE06FF07F40F2490860F248A8
:10433000486000240EE0C4EBC401F14BCA1804EB42
:104340008401542303EB011188B20023F121FDF70E
:1043500083F8641C022CEED300E000BF00BFF8BD60
:1043600010B50020FDF7DEFC10BD10B5FFF7F8FF1B
:104370006FF07F40DF490860E24848600023E24A6E
:1043800004211846FDF768F86FF07F40D9490860AE
:104390004FF05010486000240EE004EB840101EB64
:1043A000C401DA4BCA1804EB84014905080C002348
:1043B0001A21FDF751F8641C032CEED300240FE002
:1043C00004EB840000EBC400D14BC218601C162320
:1043D00058431A3081B200231846FDF73DF8641C9B
:1043E000052CEDD310BD08B5CA48B62340F2DF1244
:1043F0007A2100900020FCF720FC08BD10B50020B9
:10440000FDF790FCFDF78CF9FFF7EDFF10BD10B53F
:10441000FFF7F4FF6FF07F40B6490860B948486085
:104420000023B94A163204211846FDF715F86FF03B
:104430007F40B04908604FF05010486000241CE0F5
:10444000032C0CD2B44901EBC40204EB8401002319
:1044500003EB411188B21A21FCF7FEFF0CE0AE49D4
:1044600001EBC402E11E01EB8101002303EB4111CA
:1044700088B23021FCF7F0FF641C062CE0D3002446
:1044800017E0032C05D9082C03D2A24899494860AB
:1044900003E04FF0501097494860A04800EB8402B9
:1044A000C4EB0410413081B200231846FDF737F801
:1044B000641C0B2CE5D3002399A24121A020FDF719
:1044C0002EF8002397A241214FF4A070FDF727F8A2
:1044D00096491A22D1F8B8034FF49371FDF76BFD9A
:1044E0000020FDF7F7FA10BD08B58A48B62340F260
:1044F000DF127A2100900020FCF79FFB08BD10B569
:104500000020FDF70FFCFDF70BF910BD10B5FFF70C
:10451000F6FF6FF07F40774908607A4848600023D3
:10452000794A2C3204211846FCF796FF6FF07F4041
:10453000704908604FF05010486000237C4A1A21EF
:104540001846FCF789FF01240DE004EBC401784B09
:10455000CA18611E4D2359431E3188B200233021F1
:10456000FCF77AFF641C072CEFD30020FDF7B2FAAA
:1045700010BD38B500241BE06FF07F400090601C38
:1045800000EB400202EBC0001A2202EB4000801E4A
:1045900083B2601C00EB400202EBC0001A2202EB67
:1045A0004000801E81B2BE225A20FCF77BFB641CB7
:1045B000052CE1D338BD10B50220FDF7B3FB10BDCB
:1045C00010B56FF07F404B4908604FF050104860C5
:1045D000002418E0C4EBC40000EB4000554B03EB93
:1045E0004003554890F86A00C0EBC00000EB400063
:1045F0001A18162304FB03F01A3081B20023184660
:10460000FCF72AFF641C032CE4D310BD70B50546EB
:104610002846FDF787FB6FF07F403649086000248D
:1046200022E0AC4204D04FF050103249486002E022
:1046300034483049486004EB840101EBC4013F4B2E
:1046400003EB41033C4991F86A1001EB810606EB4C
:10465000C1015A18C4EB0411002303EBC10188B255
:104660000421FCF7F9FE641C042CDAD36FF07F40C0
:10467000204908604FF050104860022D1CD10024E2
:1046800018E004EB440000EBC4002D4B03EB4003A7
:10469000294890F86A0000EB400606EBC0001A18A3
:1046A000162304FB03F01A3081B200231846FCF7EE
:1046B000D3FE641C052CE4D370BD2DE9F34F83B009
:1046C0000C4642F20F716068884206D90A21606880
:1046D000B0FBF1F060600420A060A068C0F10400AD
:1046E000A060D4F80490E06860BB4FF47A7009FBD6
:1046F00000F937E0100000103800310040A401003C
:10470000B7A40100F35203008FAC010019AE010001
:1047100040AE0100343465006BAF0100D3AF01003F
:104720004C4F57004849474800000000A8020010BD
:104730002BB001003EAA010040010010B9AB0100FE
:10474000BCAA0100FFE7E06801280BD148460CF045
:1047500013FE07460022FE4B0CF05EFE05460CF0F1
:10476000C7FD8146A0680CF007FE07463A460B4697
:104770000020F8490BF0FCFD05460E4648460CF0BB
:10478000FBFD2A463346CDE900010CF01DFC8246B4
:104790000CF0AEFD814648460CF0EEFD05460022C9
:1047A000ED4B0CF037FF09D2DFF8B09340F6B8308C
:1047B00060600220A0600120E0605FE048460CF0ED
:1047C000DBFD05460022E64B0CF024FF09D842F23F
:1047D0001070B9FBF0F060600220A0600120E06082
:1047E0004CE048460CF0C8FD05460022D84B0CF0C2
:1047F00011FF09D84FF47A70B9FBF0F06060032024
:10480000A0600120E06039E048460CF0B5FD0546A7
:104810000022D44B0CF0FEFE08D86420B9FBF0F067
:1048200060600120A0600020E06027E048460CF0B6
:10483000A3FD05460022CC4B0CF0ECFE08D80A2064
:10484000B9FBF0F060600220A0600020E06015E09D
:1048500048460CF091FD05460022C44B0CF0DAFEF0
:1048600006D8C4F804900320A0600020E06005E0B2
:10487000C4F804900320A0600020E060C4F8189001
:104880001C222146039809F018FC05B0BDE8F08F02
:104890000146888800B270472DE9F04105460C4674
:1048A000E06870BBA068052829D2DFE800F0031497
:1048B000151C220060680CF05FFD06460022A94B23
:1048C0000CF0A8FE04D2AA4860600020206101E03C
:1048D0000120206114E013E04FF47A716068B0FBAE
:1048E000F1F060600CE064216068B0FBF1F06060A2
:1048F00006E00A216068B0FBF1F0606000E000BFF4
:1049000046E0FFE7A06806283ED2DFE800F003108B
:104910001819263296496068884202D908466060B4
:1049200004E04FF47A716068484360602FE060688B
:1049300020B10A216068B0FBF1F0606027E026E05A
:1049400042F210716068884201D908466060606870
:1049500000EB80004000606019E06068B0F57A7F8D
:1049600002D94FF47A7060606421606848436060E7
:104970000DE06068642801D9642060604FF47A71AA
:1049800060684843606002E07A48606000BF00BF32
:104990001C222146284609F090FBBDE8F0812DE954
:1049A000F34F83B08A4642F20F71DAF8040088426E
:1049B00009D90A21DAF80400B0FBF1F0CAF80400C2
:1049C0000420CAF808004FF47A71DAF8040000FBFA
:1049D00001FBDAF80810C1F104000CF0CDFC02462E
:1049E0000B46CDE9000100205A490BF0C1FC0446FA
:1049F0000D4658460CF0C0FC064622462B460CF0ED
:104A0000E3FA80460CF074FC83464EF66020834542
:104A100000D9834642F21070834508D90220CAF8B3
:104A200008000A20BBFBF0F0CAF8040004E00320F1
:104A3000CAF80800CAF804B0CAF818B01C225146D7
:104A4000039809F03AFB05B0BDE8F08F2DE9F05F5F
:104A500082460C460020E060A0680DF069F98346AC
:104A60000CF0EAFF07463A460B46002039490BF0A6
:104A70007FFC05460CF03CFC81466068B0FBF9F910
:104A8000B9F1640F01D90220A0601C2221465046D2
:104A900009F013FBBDE8F09F08B5374837232822FB
:104AA0005C2100903C20FCF7E0FA344837232822B0
:104AB0005C2100906420FCF7D8FA31483723282283
:104AC000932100903C20FCF7D0FA2E48372328226F
:104AD000932100906420FCF7C8FA08BD08B5264869
:104AE000372328225C2100903C20FCF7BEFA2348A3
:104AF000372328225C2100906420FCF7B6FA224874
:104B000037232822932100903C20FCF7AEFA1D4861
:104B100037232822932100906420FCF7A6FA08BDD1
:104B200008B51548372328225C2100903C20FCF76B
:104B30009CFA1248372328225C2100906420FCF75D
:104B400094FA124837232822932100903C201FE03A
:104B500080842E4100002440389C7C4180C3C901E0
:104B6000D0126341006AF8400088C34000408F4083
:104B7000A086010040420F00BC670100D46801001C
:104B8000847F01008E8E0100978001005E7D010010
:104B9000FCF76BFAFE48372328229321009064200B
:104BA000FCF763FA08BD08B5FA48372328225C21D0
:104BB00000903C20FCF759FAF748372328225C2163
:104BC00000906420FCF751FAF448372328229321FF
:104BD00000903C20FCF749FAEF4837232822932124
:104BE00000906420FCF741FA08BD08B5E948372376
:104BF00028225C2100903C20FCF737FAE848372354
:104C000028225C2100906420FCF72FFAE348372328
:104C10002822932100903C20FCF727FAE048372314
:104C20002822932100906420FCF71FFA08BD08B5E4
:104C3000D848372328225C2100903C20FCF715FA45
:104C4000D748372328225C2100906420FCF70DFA16
:104C5000D44837232822932100903C20FCF705FA02
:104C6000CB4837232822932100906420FCF7FDF9DC
:104C700008BD08B5C748372328225C2100903C2096
:104C8000FCF7F3F9C648372328225C210090642002
:104C9000FCF7EBF9C44837232822932100903C20ED
:104CA000FCF7E3F9BA4837232822932100906420C7
:104CB000FCF7DBF908BD08B5BC48372328225C2186
:104CC00000903C20FCF7D1F9B348372328225C211F
:104CD00000906420FCF7C9F9B348372328229321B8
:104CE00000903C20FCF7C1F9A948372328229321E2
:104CF00000906420FCF7B9F908BD08B5AB4837232C
:104D000028225C2100903C20FCF7AFF9A248372311
:104D100028225C2100906420FCF7A7F99F483723E4
:104D20002822932100903C20FCF79FF99A483723D2
:104D30002822932100906420FCF797F908BD08B55C
:104D40009A48372328225C2100903C20FCF78DF9FB
:104D50009148372328225C2100906420FCF785F9D4
:104D60008E4837232822932100903C20FCF77DF9C0
:104D70008F4837232822932100906420FCF775F98F
:104D800008BD08B58948372328225C2100903C20C3
:104D9000FCF76BF98048372328225C2100906420BF
:104DA000FCF763F97F4837232822932100903C20A9
:104DB000FCF75BF976483723282293210090642082
:104DC000FCF753F908BD08B57848372328225C2141
:104DD00000903C20FCF749F96F48372328225C21DA
:104DE00000906420FCF741F9724837232822932170
:104DF00000903C20FCF739F965483723282293219D
:104E000000906420FCF731F908BD08B567483723E6
:104E100028225C2100903C20FCF727F960483723CA
:104E200028225C2100906420FCF71FF95D4837239D
:104E30002822932100903C20FCF717F9544837238F
:104E40002822932100906420FCF70FF908BD08B5D3
:104E50005648372328225C2100903C20FCF705F9B6
:104E60004F48372328225C2100906420FCF7FDF88E
:104E70004D4837232822932100903C20FCF7F5F879
:104E8000434837232822932100906420FCF7EDF853
:104E900008BD08B54548372328225C2100903C20F6
:104EA000FCF7E3F83E48372328225C210090642079
:104EB000FCF7DBF8394837232822932100903C2067
:104EC000FCF7D3F83648372328229321009064203A
:104ED000FCF7CBF808BD08B53448372328225C21FD
:104EE00000903C20FCF7C1F82D48372328225C2194
:104EF00000906420FCF7B9F8284837232822932132
:104F000000903C20FCF7B1F8294837232822932150
:104F100000906420FCF7A9F808BD08B5264837239F
:104F200028225C2100903C20FCF79FF8184837238A
:104F300028225C2100906420FCF797F81C48372356
:104F40002822932100903C20FCF78FF8104837234B
:104F50002822932100906420FCF787F808BD08B54B
:104F60001548372328225C2100903C20FCF77DF86F
:104F70000748372328225C2100906420FCF775F84D
:104F80000E4837232822932100903C2018E000008F
:104F90008E8E0100BC670100D46801004B7C0100CB
:104FA00012790100847F010097800100FF770100E2
:104FB000AA8101005E7D0100257A0100BD82010009
:104FC000FCF753F8F94837232822932100906420F6
:104FD000FCF74BF808BD08B5F548372328225C21BB
:104FE00000903C20FCF741F8F048372328225C2150
:104FF00000906420FCF739F8EE48372328229321EB
:1050000000903C20FCF731F8E84837232822932110
:1050100000906420FCF729F808BD08B5E448372360
:1050200028225C2100903C20FCF71FF8DF48372342
:1050300028225C2100906420FCF717F8DE48372313
:105040002822932100903C20FCF70FF8D748372303
:105050002822932100906420FCF707F808BD10B5C2
:10506000D648D749486000240AE0352204FB02F004
:1050700000F15C01D3A26420FCF797F9601CC4B274
:10508000032CF2DB10BD08B5CC48CD494860CF48B1
:10509000372328225C2100903C20FBF7E6FFCC4818
:1050A000372328225C2100904FF49670FBF7DDFF38
:1050B000C848372328225C2100904FF4AA70FBF7E0
:1050C000D4FFC54837232822912100904B20FBF7BD
:1050D000CCFFC24837232822912100904FF49670CC
:1050E000FBF7C3FFBE4837232822912100904FF4DD
:1050F000AA70FBF7BAFFBB4837232822C6210090CD
:105100003C20FBF7B2FFB84837232822C621009085
:105110004FF4AA70FBF7A9FF08BD08B5B3483723C1
:105120002822932100903C20FBF79FFFA7483723BC
:1051300028225C2100903C20FBF797FFAC483723E6
:1051400028225C2100906420FBF78FFF97483723CB
:105150002822932100906420FBF787FF08BD08B543
:105160009A48372328225C2100903C20FBF77DFFE2
:10517000A048372328225C2100906420FBF775FFAC
:105180009A4837232822932100903C20FBF76DFF9B
:10519000864837232822932100906420FBF765FF7F
:1051A00008BD08B59448372328225C2100903C2094
:1051B000FBF75BFF914837232822932100903C2086
:1051C000FBF753FF08BD2DE9F84F834617461C46F1
:1051D0004FF00109CA460020A07000BF01F055F948
:1051E0000646FF2EFAD1864890F8B803A07022E157
:1051F000BAF1000F33D04FF0000A6FF07F407049D2
:10520000086080484860FCF78BFAFF206C494860D2
:10521000084640682C23C022182100905820FBF734
:105220000CFDA07800EBC0007749421801231A2139
:105230005820FCF711F973486149486000250CE0DB
:1052400007EBC50205EB8501542303EB0110002396
:10525000F121FCF701F9681CC5B2052DF0DB01F066
:1052600014F90646FF2E02D14FF0000801E008F1C4
:105270000108B8F1030FBAD14FF0010A132E79D00B
:105280000CDC0B2E77D004DC012E59D0092E73D103
:1052900011E00C2E71D0112EF9D11DE01A2E70D014
:1052A00004DC142E6BD0192EF1D12FE01B2E6BD005
:1052B0001F2EECD16EE0E0785449085CFF2804D042
:1052C000E078085CA0704FF00009A0784C49C1F864
:1052D000B803FF20A070ADE0E1784C48C01D405CF1
:1052E000FF2806D0E1784948C01D405CA0704FF00F
:1052F0000009A0784249C1F8B803E1784348153065
:10530000405CFF2801D0FF20A07093E0E1783F4887
:105310000E30405CFF2806D0E1783C480E30405CFF
:10532000A0704FF00009A0783549C1F8B803E178C2
:1053300036481530405CFF2801D0FF20A07079E08E
:10534000E17832481530405CFF2806D0E1782F48DC
:105350001530405CA0704FF00009A0782849C1F8D2
:10536000B803E17829481530405CFF2801D0FF20C0
:10537000A0705FE014E057E05BE050E001E049E03E
:1053800002E04FF0000955E00620214908604FF087
:1053900000094FE005201E4908604FF0000949E070
:1053A0004FF000090020207044E000008E8E0100C4
:1053B000387B0100AA810100BD8201003434650000
:1053C000100000102D2D2D2D2D0000004B7C010014
:1053D000E3840100688C0100B49001001C88010086
:1053E0003998010000950100139601009780010093
:1053F00012790100D46801005E7D0100717E010018
:10540000A802001038003100D49E010064A0010001
:10541000A00000104FF000090A2020700AE04FF0B1
:1054200000090220207005E04FF0000900202070E4
:1054300000E000BF00BFB9F1000F7FF4D9AEBDE8B6
:10544000F88F70B504460D46FE4A5C218220FBF7BA
:10545000ACFF022C03D0032C01D0042C03D1FF207D
:10546000F949086003E06FF07F40F749086028467B
:1054700004F0EFFCF34A91218220FBF796FF6FF0D6
:105480007F40F14908604FF05010486070BD30B562
:1054900085B004460D46EDA003C8CDE90301EDA19A
:1054A00003C9CDE9010103A8005D40F2131148438F
:1054B000EA490844372328225C2100904FF4BE704B
:1054C000FBF7D3FD01A8405D40F213114843E349C7
:1054D0000844372328225C2100904FF4D270FBF758
:1054E000C4FD05B030BD30B585B004460D46D7A02B
:1054F00003C8CDE90301D7A103C9CDE9010103A880
:10550000005D40F213114843D44908443723282250
:10551000932100904FF4BE70FBF7A7FD01A8405DFA
:1055200040F213114843CD490844372328229321E0
:1055300000904FF4D270FBF798FD05B030BD3EB53A
:105540000446C74A07CA8DE80700C64890F84000DD
:105550008DF80200BF208DF803006946C24805F0AF
:105560005DFE3EBD10B59AB0012000F03EFEAA21BE
:10557000BD4805F03DFE012000F037FEF121BA489C
:1055800005F036FE012000F030FEB848007800EB50
:105590008001B648801C10F821008DF80400B34843
:1055A000007800EB8001B148801C00EB810040884E
:1055B0000A2190FBF1F201FB1200C0B28DF8050048
:1055C000AA48007800EB8001A848801C00EB81000D
:1055D00040880A2190FBF1F090FBF1F201FB1200F0
:1055E000C0B28DF80600A148007800EB80019F480A
:1055F000801C00EB81004088642190FBF1F00A21BF
:1056000090FBF1F201FB1200C0B28DF80700974841
:10561000007800EB80019548801C00EB81004088F9
:105620004FF47A7190FBF1F00A2190FBF1F201FB4B
:105630001200C0B28DF808008C48007800EB8001A1
:105640008A48801C00EB810080880A2190FBF1F2DF
:1056500001FB1200C0B28DF809008448007800EB0D
:1056600080018248801C00EB810080880A2190FB29
:10567000F1F090FBF1F201FB1200C0B28DF80A00CC
:105680007A48007800EB80017848801C00EB8100AC
:105690008088642190FBF1F00A2190FBF1F201FB7C
:1056A0001200C0B28DF80B007048007800EB80014A
:1056B0006E48801C00EB810080884FF47A7190FB6B
:1056C000F1F00A2190FBF1F201FB1200C0B28DF85B
:1056D0000C006648007800EB80016448801C00EBF9
:1056E000810080798DF80D006048007800EB800122
:1056F0005E48801C00EB8100007A8DF80E005B484C
:10570000007800EB80015948801C00EB8100807A12
:105710008DF80F005548007800EB80015348801C3D
:1057200000EB8100007B8DF810005048007800EB02
:1057300080014E48801C00EB8100C0890A2190FB4B
:10574000F1F201FB1200C0B28DF811004748007859
:1057500000EB80014548801C00EB8100C0890A21D4
:1057600090FBF1F090FBF1F201FB1200C0B28DF85A
:1057700012003E48007800EB80013C48801C00EBA2
:105780008100C089642190FBF1F00A2190FBF1F2C5
:1057900001FB1200C0B28DF813003448007800EB12
:1057A00080013248801C00EB8100C0894FF47A717F
:1057B00090FBF1F00A2190FBF1F201FB1200C0B264
:1057C0008DF814002948007800EB80012748801CE0
:1057D00000EB8100008A0A2190FBF1F201FB12002C
:1057E000C0B28DF815002148007800EB80011F48F9
:1057F000801C00EB8100008A0A2190FBF1F090FBF5
:10580000F1F201FB1200C0B28DF8160017480078C3
:1058100000EB80011548801C00EB8100008A6421A8
:1058200090FBF1F00A2190FBF1F201FB1200C0B2F3
:105830008DF817000D48007800EB80010B48801CA4
:1058400016E0000014460010100000100C0F10119C
:10585000160E0D00121314020B171600EC76010041
:10586000D4B20100B801001000C000404001001097
:1058700000EB8100008A4FF47A7190FBF1F00A216D
:1058800090FBF1F201FB1200C0B28DF81800FA484B
:10589000007800EB8001F848801C00EB8100807CE0
:1058A0008DF81900002409E001A8015DF34805F016
:1058B0009FFC012000F099FC601CC4B2162CF3DBA5
:1058C000012000F092FCBF21EC4805F091FC64201F
:1058D00000F08BFC1AB010BD10B586B0142101A8E1
:1058E00008F01DFCE64800680090002406E01DF862
:1058F0000410E24805F07CFC601CC4B2032CF6DB0B
:1059000006B010BD10B586B0142101A808F007FC40
:10591000DB48001D00680090002409E01DF8041019
:10592000D64805F065FC012000F05FFC601CC4B2A5
:10593000032CF3DB06B010BD10B586B0142101A80E
:1059400008F0EDFBCE48083000680090002409E024
:105950001DF80410C94805F04BFC012000F045FC7F
:10596000601CC4B2032CF3DB06B010BD3EB5054687
:10597000C34A0C3207CA8DE80700002304221946E7
:105980002846FBF72FFE002406E0BE48015D601D9F
:105990000DF80010601CC4B2042CF6DB002409E0F2
:1059A0001DF80410B54805F023FC012000F01DFC93
:1059B000601CC4B20A2CF3DBC82000F016FC3EBD0C
:1059C0003EB50546AE4A183207CA8DE807008DF885
:1059D0000150002409E01DF80410A84805F008FC57
:1059E000012000F002FC601CC4B2032CF3DB642035
:1059F00000F0FBFB3EBD3EB50546A14A243207CA76
:105A00008DE807008DF80250002409E01DF804100D
:105A10009A4805F0EDFB012000F0E7FB601CC4B2E2
:105A2000042CF3DB642000F0E0FB3EBD00B585B044
:105A3000002001900290039004909148303000685B
:105A4000009010208DF801000D208DF802008E4886
:105A500000788DF8030002208DF8040000208DF8F6
:105A60000400BF208DF80A0000208DF80B00694665
:105A7000824805F0D3FB05B000BD70B504460D4665
:105A800004EB4400814942180123C8218020FBF720
:105A9000E3FC05EB45007E4942180123C82188201C
:105AA000FBF7DAFC70BD70B504460D4604EB44000C
:105AB000764942180023C8214FF4C270FBF7CCFC92
:105AC00005EB4500724942180023C8214FF4C67007
:105AD000FBF7C2FC70BD00B58DB018226DA107A800
